{
  "_format": "hh-sol-artifact-1",
  "contractName": "EggTeam",
  "sourceName": "contracts/EggTeam.sol",
  "abi": [
    {
      "inputs": [],
      "stateMutability": "nonpayable",
      "type": "constructor"
    },
    {
      "anonymous": false,
      "inputs": [
        {
          "indexed": true,
          "internalType": "address",
          "name": "owner",
          "type": "address"
        },
        {
          "indexed": true,
          "internalType": "address",
          "name": "approved",
          "type": "address"
        },
        {
          "indexed": true,
          "internalType": "uint256",
          "name": "tokenId",
          "type": "uint256"
        }
      ],
      "name": "Approval",
      "type": "event"
    },
    {
      "anonymous": false,
      "inputs": [
        {
          "indexed": true,
          "internalType": "address",
          "name": "owner",
          "type": "address"
        },
        {
          "indexed": true,
          "internalType": "address",
          "name": "operator",
          "type": "address"
        },
        {
          "indexed": false,
          "internalType": "bool",
          "name": "approved",
          "type": "bool"
        }
      ],
      "name": "ApprovalForAll",
      "type": "event"
    },
    {
      "anonymous": false,
      "inputs": [
        {
          "indexed": false,
          "internalType": "uint256",
          "name": "tokenId",
          "type": "uint256"
        },
        {
          "indexed": false,
          "internalType": "address",
          "name": "owner",
          "type": "address"
        }
      ],
      "name": "EggMinted",
      "type": "event"
    },
    {
      "anonymous": false,
      "inputs": [
        {
          "indexed": true,
          "internalType": "address",
          "name": "previousOwner",
          "type": "address"
        },
        {
          "indexed": true,
          "internalType": "address",
          "name": "newOwner",
          "type": "address"
        }
      ],
      "name": "OwnershipTransferred",
      "type": "event"
    },
    {
      "anonymous": false,
      "inputs": [
        {
          "indexed": true,
          "internalType": "address",
          "name": "from",
          "type": "address"
        },
        {
          "indexed": true,
          "internalType": "address",
          "name": "to",
          "type": "address"
        },
        {
          "indexed": true,
          "internalType": "uint256",
          "name": "tokenId",
          "type": "uint256"
        }
      ],
      "name": "Transfer",
      "type": "event"
    },
    {
      "inputs": [],
      "name": "MAX_TOKENS",
      "outputs": [
        {
          "internalType": "uint256",
          "name": "",
          "type": "uint256"
        }
      ],
      "stateMutability": "view",
      "type": "function"
    },
    {
      "inputs": [
        {
          "internalType": "address[]",
          "name": "addresses",
          "type": "address[]"
        }
      ],
      "name": "addToPresaleList",
      "outputs": [],
      "stateMutability": "nonpayable",
      "type": "function"
    },
    {
      "inputs": [
        {
          "internalType": "address",
          "name": "to",
          "type": "address"
        },
        {
          "internalType": "uint256",
          "name": "tokenId",
          "type": "uint256"
        }
      ],
      "name": "approve",
      "outputs": [],
      "stateMutability": "nonpayable",
      "type": "function"
    },
    {
      "inputs": [
        {
          "internalType": "address",
          "name": "owner",
          "type": "address"
        }
      ],
      "name": "balanceOf",
      "outputs": [
        {
          "internalType": "uint256",
          "name": "",
          "type": "uint256"
        }
      ],
      "stateMutability": "view",
      "type": "function"
    },
    {
      "inputs": [],
      "name": "baseURI",
      "outputs": [
        {
          "internalType": "string",
          "name": "",
          "type": "string"
        }
      ],
      "stateMutability": "view",
      "type": "function"
    },
    {
      "inputs": [],
      "name": "devReserve",
      "outputs": [
        {
          "internalType": "uint256",
          "name": "",
          "type": "uint256"
        }
      ],
      "stateMutability": "view",
      "type": "function"
    },
    {
      "inputs": [
        {
          "internalType": "uint256",
          "name": "tokenId",
          "type": "uint256"
        }
      ],
      "name": "getApproved",
      "outputs": [
        {
          "internalType": "address",
          "name": "",
          "type": "address"
        }
      ],
      "stateMutability": "view",
      "type": "function"
    },
    {
      "inputs": [
        {
          "internalType": "address",
          "name": "owner",
          "type": "address"
        },
        {
          "internalType": "address",
          "name": "operator",
          "type": "address"
        }
      ],
      "name": "isApprovedForAll",
      "outputs": [
        {
          "internalType": "bool",
          "name": "",
          "type": "bool"
        }
      ],
      "stateMutability": "view",
      "type": "function"
    },
    {
      "inputs": [],
      "name": "isRevealed",
      "outputs": [
        {
          "internalType": "bool",
          "name": "",
          "type": "bool"
        }
      ],
      "stateMutability": "view",
      "type": "function"
    },
    {
      "inputs": [],
      "name": "maxTokenPurchase",
      "outputs": [
        {
          "internalType": "uint256",
          "name": "",
          "type": "uint256"
        }
      ],
      "stateMutability": "view",
      "type": "function"
    },
    {
      "inputs": [
        {
          "internalType": "uint256",
          "name": "numberOfTokens",
          "type": "uint256"
        }
      ],
      "name": "mintEgg",
      "outputs": [],
      "stateMutability": "payable",
      "type": "function"
    },
    {
      "inputs": [],
      "name": "name",
      "outputs": [
        {
          "internalType": "string",
          "name": "",
          "type": "string"
        }
      ],
      "stateMutability": "view",
      "type": "function"
    },
    {
      "inputs": [
        {
          "internalType": "address",
          "name": "addr",
          "type": "address"
        }
      ],
      "name": "onPreSaleList",
      "outputs": [
        {
          "internalType": "bool",
          "name": "",
          "type": "bool"
        }
      ],
      "stateMutability": "view",
      "type": "function"
    },
    {
      "inputs": [],
      "name": "owner",
      "outputs": [
        {
          "internalType": "address",
          "name": "",
          "type": "address"
        }
      ],
      "stateMutability": "view",
      "type": "function"
    },
    {
      "inputs": [
        {
          "internalType": "uint256",
          "name": "tokenId",
          "type": "uint256"
        }
      ],
      "name": "ownerOf",
      "outputs": [
        {
          "internalType": "address",
          "name": "",
          "type": "address"
        }
      ],
      "stateMutability": "view",
      "type": "function"
    },
    {
      "inputs": [
        {
          "internalType": "uint256",
          "name": "numberOfTokens",
          "type": "uint256"
        }
      ],
      "name": "presaleEgg",
      "outputs": [],
      "stateMutability": "payable",
      "type": "function"
    },
    {
      "inputs": [],
      "name": "presaleIsActive",
      "outputs": [
        {
          "internalType": "bool",
          "name": "",
          "type": "bool"
        }
      ],
      "stateMutability": "view",
      "type": "function"
    },
    {
      "inputs": [],
      "name": "presaleMaxMint",
      "outputs": [
        {
          "internalType": "uint256",
          "name": "",
          "type": "uint256"
        }
      ],
      "stateMutability": "view",
      "type": "function"
    },
    {
      "inputs": [
        {
          "internalType": "address[]",
          "name": "addresses",
          "type": "address[]"
        }
      ],
      "name": "removeFromPresaleList",
      "outputs": [],
      "stateMutability": "nonpayable",
      "type": "function"
    },
    {
      "inputs": [],
      "name": "renounceOwnership",
      "outputs": [],
      "stateMutability": "nonpayable",
      "type": "function"
    },
    {
      "inputs": [
        {
          "internalType": "address",
          "name": "_to",
          "type": "address"
        },
        {
          "internalType": "uint256",
          "name": "_reserveAmount",
          "type": "uint256"
        }
      ],
      "name": "reserveTokens",
      "outputs": [],
      "stateMutability": "nonpayable",
      "type": "function"
    },
    {
      "inputs": [],
      "name": "reveal",
      "outputs": [],
      "stateMutability": "nonpayable",
      "type": "function"
    },
    {
      "inputs": [
        {
          "internalType": "address",
          "name": "from",
          "type": "address"
        },
        {
          "internalType": "address",
          "name": "to",
          "type": "address"
        },
        {
          "internalType": "uint256",
          "name": "tokenId",
          "type": "uint256"
        }
      ],
      "name": "safeTransferFrom",
      "outputs": [],
      "stateMutability": "nonpayable",
      "type": "function"
    },
    {
      "inputs": [
        {
          "internalType": "address",
          "name": "from",
          "type": "address"
        },
        {
          "internalType": "address",
          "name": "to",
          "type": "address"
        },
        {
          "internalType": "uint256",
          "name": "tokenId",
          "type": "uint256"
        },
        {
          "internalType": "bytes",
          "name": "_data",
          "type": "bytes"
        }
      ],
      "name": "safeTransferFrom",
      "outputs": [],
      "stateMutability": "nonpayable",
      "type": "function"
    },
    {
      "inputs": [],
      "name": "saleIsActive",
      "outputs": [
        {
          "internalType": "bool",
          "name": "",
          "type": "bool"
        }
      ],
      "stateMutability": "view",
      "type": "function"
    },
    {
      "inputs": [
        {
          "internalType": "address",
          "name": "operator",
          "type": "address"
        },
        {
          "internalType": "bool",
          "name": "approved",
          "type": "bool"
        }
      ],
      "name": "setApprovalForAll",
      "outputs": [],
      "stateMutability": "nonpayable",
      "type": "function"
    },
    {
      "inputs": [
        {
          "internalType": "string",
          "name": "_newBaseURI",
          "type": "string"
        }
      ],
      "name": "setBaseURI",
      "outputs": [],
      "stateMutability": "nonpayable",
      "type": "function"
    },
    {
      "inputs": [
        {
          "internalType": "uint256",
          "name": "maxMint",
          "type": "uint256"
        }
      ],
      "name": "setPresaleMaxMint",
      "outputs": [],
      "stateMutability": "nonpayable",
      "type": "function"
    },
    {
      "inputs": [
        {
          "internalType": "bytes4",
          "name": "interfaceId",
          "type": "bytes4"
        }
      ],
      "name": "supportsInterface",
      "outputs": [
        {
          "internalType": "bool",
          "name": "",
          "type": "bool"
        }
      ],
      "stateMutability": "view",
      "type": "function"
    },
    {
      "inputs": [],
      "name": "symbol",
      "outputs": [
        {
          "internalType": "string",
          "name": "",
          "type": "string"
        }
      ],
      "stateMutability": "view",
      "type": "function"
    },
    {
      "inputs": [],
      "name": "togglePresaleState",
      "outputs": [],
      "stateMutability": "nonpayable",
      "type": "function"
    },
    {
      "inputs": [],
      "name": "toggleSaleState",
      "outputs": [],
      "stateMutability": "nonpayable",
      "type": "function"
    },
    {
      "inputs": [
        {
          "internalType": "uint256",
          "name": "index",
          "type": "uint256"
        }
      ],
      "name": "tokenByIndex",
      "outputs": [
        {
          "internalType": "uint256",
          "name": "",
          "type": "uint256"
        }
      ],
      "stateMutability": "view",
      "type": "function"
    },
    {
      "inputs": [
        {
          "internalType": "address",
          "name": "owner",
          "type": "address"
        },
        {
          "internalType": "uint256",
          "name": "index",
          "type": "uint256"
        }
      ],
      "name": "tokenOfOwnerByIndex",
      "outputs": [
        {
          "internalType": "uint256",
          "name": "",
          "type": "uint256"
        }
      ],
      "stateMutability": "view",
      "type": "function"
    },
    {
      "inputs": [],
      "name": "tokenPrice",
      "outputs": [
        {
          "internalType": "uint256",
          "name": "",
          "type": "uint256"
        }
      ],
      "stateMutability": "view",
      "type": "function"
    },
    {
      "inputs": [
        {
          "internalType": "uint256",
          "name": "tokenId",
          "type": "uint256"
        }
      ],
      "name": "tokenURI",
      "outputs": [
        {
          "internalType": "string",
          "name": "",
          "type": "string"
        }
      ],
      "stateMutability": "view",
      "type": "function"
    },
    {
      "inputs": [
        {
          "internalType": "address",
          "name": "_owner",
          "type": "address"
        }
      ],
      "name": "tokensOfOwner",
      "outputs": [
        {
          "internalType": "uint256[]",
          "name": "",
          "type": "uint256[]"
        }
      ],
      "stateMutability": "view",
      "type": "function"
    },
    {
      "inputs": [],
      "name": "totalSupply",
      "outputs": [
        {
          "internalType": "uint256",
          "name": "",
          "type": "uint256"
        }
      ],
      "stateMutability": "view",
      "type": "function"
    },
    {
      "inputs": [
        {
          "internalType": "address",
          "name": "from",
          "type": "address"
        },
        {
          "internalType": "address",
          "name": "to",
          "type": "address"
        },
        {
          "internalType": "uint256",
          "name": "tokenId",
          "type": "uint256"
        }
      ],
      "name": "transferFrom",
      "outputs": [],
      "stateMutability": "nonpayable",
      "type": "function"
    },
    {
      "inputs": [
        {
          "internalType": "address",
          "name": "newOwner",
          "type": "address"
        }
      ],
      "name": "transferOwnership",
      "outputs": [],
      "stateMutability": "nonpayable",
      "type": "function"
    },
    {
      "inputs": [],
      "name": "withdraw",
      "outputs": [],
      "stateMutability": "nonpayable",
      "type": "function"
    }
  ],
  "bytecode": "0x608060405260405180602001604052806000815250600b90805190602001906200002b92919062000229565b506000600c60006101000a81548160ff0219169083151502179055506000600c60016101000a81548160ff0219169083151502179055506000600c60026101000a81548160ff0219169083151502179055506002600f5560406010553480156200009457600080fd5b506040518060400160405280600a81526020017f4567675465616d4e6577000000000000000000000000000000000000000000008152506040518060400160405280600481526020017f454747540000000000000000000000000000000000000000000000000000000081525081600090805190602001906200011992919062000229565b5080600190805190602001906200013292919062000229565b50505062000155620001496200015b60201b60201c565b6200016360201b60201c565b6200033e565b600033905090565b6000600660009054906101000a900473ffffffffffffffffffffffffffffffffffffffff16905081600660006101000a81548173ffffffffffffffffffffffffffffffffffffffff021916908373ffffffffffffffffffffffffffffffffffffffff1602179055508173ffffffffffffffffffffffffffffffffffffffff168173ffffffffffffffffffffffffffffffffffffffff167f8be0079c531659141344cd1fd0a4f28419497f9722a3daafe3b4186f6b6457e060405160405180910390a35050565b8280546200023790620002d9565b90600052602060002090601f0160209004810192826200025b5760008555620002a7565b82601f106200027657805160ff1916838001178555620002a7565b82800160010185558215620002a7579182015b82811115620002a657825182559160200191906001019062000289565b5b509050620002b69190620002ba565b5090565b5b80821115620002d5576000816000905550600101620002bb565b5090565b60006002820490506001821680620002f257607f821691505b602082108114156200030957620003086200030f565b5b50919050565b7f4e487b7100000000000000000000000000000000000000000000000000000000600052602260045260246000fd5b615403806200034e6000396000f3fe6080604052600436106102465760003560e01c806378cf19e911610139578063b179e060116100b6578063e985e9c51161007a578063e985e9c51461084c578063eb8d244414610889578063f285e69e146108b4578063f2fde38b146108cb578063f47c84c5146108f4578063fcd2a4271461091f57610246565b8063b179e0601461077d578063b88d4fde146107a6578063c87b56dd146107cf578063daaeec861461080c578063df4305d21461082357610246565b8063946ef42a116100fd578063946ef42a146106cb57806395d89b41146106f6578063a22cb46514610721578063a475b5dd1461074a578063a9e7c8571461076157610246565b806378cf19e9146105f35780637ff9b5961461061c5780638422691e146106475780638462151c146106635780638da5cb5b146106a057610246565b80633ccfd60b116101c75780636352211e1161018b5780636352211e1461050e5780636c0360eb1461054b57806370a0823114610576578063715018a6146105b35780637204a3c9146105ca57610246565b80633ccfd60b1461043d57806342842e0e146104545780634f6ccce71461047d57806354214f69146104ba57806355f804b3146104e557610246565b806311576b791161020e57806311576b791461034457806318160ddd1461038157806323b872dd146103ac5780632f745c59146103d557806330f72cd41461041257610246565b806301ffc9a71461024b57806306fdde0314610288578063081812fc146102b3578063095ea7b3146102f057806309aa3dcf14610319575b600080fd5b34801561025757600080fd5b50610272600480360381019061026d9190613bf4565b61094a565b60405161027f919061430f565b60405180910390f35b34801561029457600080fd5b5061029d61095c565b6040516102aa919061432a565b60405180910390f35b3480156102bf57600080fd5b506102da60048036038101906102d59190613c87565b6109ee565b6040516102e79190614286565b60405180910390f35b3480156102fc57600080fd5b5061031760048036038101906103129190613b73565b610a73565b005b34801561032557600080fd5b5061032e610b8b565b60405161033b91906146ec565b60405180910390f35b34801561035057600080fd5b5061036b60048036038101906103669190613a08565b610b90565b604051610378919061430f565b60405180910390f35b34801561038d57600080fd5b50610396610be6565b6040516103a391906146ec565b60405180910390f35b3480156103b857600080fd5b506103d360048036038101906103ce9190613a6d565b610bf3565b005b3480156103e157600080fd5b506103fc60048036038101906103f79190613b73565b610c53565b60405161040991906146ec565b60405180910390f35b34801561041e57600080fd5b50610427610cf8565b604051610434919061430f565b60405180910390f35b34801561044957600080fd5b50610452610d0b565b005b34801561046057600080fd5b5061047b60048036038101906104769190613a6d565b610e07565b005b34801561048957600080fd5b506104a4600480360381019061049f9190613c87565b610e27565b6040516104b191906146ec565b60405180910390f35b3480156104c657600080fd5b506104cf610ebe565b6040516104dc919061430f565b60405180910390f35b3480156104f157600080fd5b5061050c60048036038101906105079190613c46565b610ed1565b005b34801561051a57600080fd5b5061053560048036038101906105309190613c87565b610f67565b6040516105429190614286565b60405180910390f35b34801561055757600080fd5b50610560611019565b60405161056d919061432a565b60405180910390f35b34801561058257600080fd5b5061059d60048036038101906105989190613a08565b6110a7565b6040516105aa91906146ec565b60405180910390f35b3480156105bf57600080fd5b506105c861115f565b005b3480156105d657600080fd5b506105f160048036038101906105ec9190613baf565b6111e7565b005b3480156105ff57600080fd5b5061061a60048036038101906106159190613b73565b6113eb565b005b34801561062857600080fd5b5061063161150d565b60405161063e91906146ec565b60405180910390f35b610661600480360381019061065c9190613c87565b611518565b005b34801561066f57600080fd5b5061068a60048036038101906106859190613a08565b6116f3565b60405161069791906142ed565b60405180910390f35b3480156106ac57600080fd5b506106b561186f565b6040516106c29190614286565b60405180910390f35b3480156106d757600080fd5b506106e0611899565b6040516106ed91906146ec565b60405180910390f35b34801561070257600080fd5b5061070b61189f565b604051610718919061432a565b60405180910390f35b34801561072d57600080fd5b5061074860048036038101906107439190613b37565b611931565b005b34801561075657600080fd5b5061075f611947565b005b61077b60048036038101906107769190613c87565b6119e0565b005b34801561078957600080fd5b506107a4600480360381019061079f9190613baf565b611d48565b005b3480156107b257600080fd5b506107cd60048036038101906107c89190613abc565b611f4c565b005b3480156107db57600080fd5b506107f660048036038101906107f19190613c87565b611fae565b604051610803919061432a565b60405180910390f35b34801561081857600080fd5b50610821612093565b005b34801561082f57600080fd5b5061084a60048036038101906108459190613c87565b61213b565b005b34801561085857600080fd5b50610873600480360381019061086e9190613a31565b6121c1565b604051610880919061430f565b60405180910390f35b34801561089557600080fd5b5061089e612255565b6040516108ab919061430f565b60405180910390f35b3480156108c057600080fd5b506108c9612268565b005b3480156108d757600080fd5b506108f260048036038101906108ed9190613a08565b612310565b005b34801561090057600080fd5b50610909612408565b60405161091691906146ec565b60405180910390f35b34801561092b57600080fd5b5061093461240d565b60405161094191906146ec565b60405180910390f35b600061095582612413565b9050919050565b60606000805461096b90614a09565b80601f016020809104026020016040519081016040528092919081815260200182805461099790614a09565b80156109e45780601f106109b9576101008083540402835291602001916109e4565b820191906000526020600020905b8154815290600101906020018083116109c757829003601f168201915b5050505050905090565b60006109f98261248d565b610a38576040517f08c379a0000000000000000000000000000000000000000000000000000000008152600401610a2f9061458c565b60405180910390fd5b6004600083815260200190815260200160002060009054906101000a900473ffffffffffffffffffffffffffffffffffffffff169050919050565b6000610a7e82610f67565b90508073ffffffffffffffffffffffffffffffffffffffff168373ffffffffffffffffffffffffffffffffffffffff161415610aef576040517f08c379a0000000000000000000000000000000000000000000000000000000008152600401610ae69061462c565b60405180910390fd5b8073ffffffffffffffffffffffffffffffffffffffff16610b0e6124f9565b73ffffffffffffffffffffffffffffffffffffffff161480610b3d5750610b3c81610b376124f9565b6121c1565b5b610b7c576040517f08c379a0000000000000000000000000000000000000000000000000000000008152600401610b73906144ec565b60405180910390fd5b610b868383612501565b505050565b600581565b6000600d60008373ffffffffffffffffffffffffffffffffffffffff1673ffffffffffffffffffffffffffffffffffffffff16815260200190815260200160002060009054906101000a900460ff169050919050565b6000600980549050905090565b610c04610bfe6124f9565b826125ba565b610c43576040517f08c379a0000000000000000000000000000000000000000000000000000000008152600401610c3a9061464c565b60405180910390fd5b610c4e838383612698565b505050565b6000610c5e836110a7565b8210610c9f576040517f08c379a0000000000000000000000000000000000000000000000000000000008152600401610c969061438c565b60405180910390fd5b600760008473ffffffffffffffffffffffffffffffffffffffff1673ffffffffffffffffffffffffffffffffffffffff168152602001908152602001600020600083815260200190815260200160002054905092915050565b600c60019054906101000a900460ff1681565b610d136124f9565b73ffffffffffffffffffffffffffffffffffffffff16610d3161186f565b73ffffffffffffffffffffffffffffffffffffffff1614610d87576040517f08c379a0000000000000000000000000000000000000000000000000000000008152600401610d7e906145ac565b60405180910390fd5b6000610d9161186f565b73ffffffffffffffffffffffffffffffffffffffff1647604051610db490614271565b60006040518083038185875af1925050503d8060008114610df1576040519150601f19603f3d011682016040523d82523d6000602084013e610df6565b606091505b5050905080610e0457600080fd5b50565b610e2283838360405180602001604052806000815250611f4c565b505050565b6000610e31610be6565b8210610e72576040517f08c379a0000000000000000000000000000000000000000000000000000000008152600401610e699061466c565b60405180910390fd5b60098281548110610eac577f4e487b7100000000000000000000000000000000000000000000000000000000600052603260045260246000fd5b90600052602060002001549050919050565b600c60029054906101000a900460ff1681565b610ed96124f9565b73ffffffffffffffffffffffffffffffffffffffff16610ef761186f565b73ffffffffffffffffffffffffffffffffffffffff1614610f4d576040517f08c379a0000000000000000000000000000000000000000000000000000000008152600401610f44906145ac565b60405180910390fd5b80600b9080519060200190610f639291906137e2565b5050565b6000806002600084815260200190815260200160002060009054906101000a900473ffffffffffffffffffffffffffffffffffffffff169050600073ffffffffffffffffffffffffffffffffffffffff168173ffffffffffffffffffffffffffffffffffffffff161415611010576040517f08c379a00000000000000000000000000000000000000000000000000000000081526004016110079061452c565b60405180910390fd5b80915050919050565b600b805461102690614a09565b80601f016020809104026020016040519081016040528092919081815260200182805461105290614a09565b801561109f5780601f106110745761010080835404028352916020019161109f565b820191906000526020600020905b81548152906001019060200180831161108257829003601f168201915b505050505081565b60008073ffffffffffffffffffffffffffffffffffffffff168273ffffffffffffffffffffffffffffffffffffffff161415611118576040517f08c379a000000000000000000000000000000000000000000000000000000000815260040161110f9061450c565b60405180910390fd5b600360008373ffffffffffffffffffffffffffffffffffffffff1673ffffffffffffffffffffffffffffffffffffffff168152602001908152602001600020549050919050565b6111676124f9565b73ffffffffffffffffffffffffffffffffffffffff1661118561186f565b73ffffffffffffffffffffffffffffffffffffffff16146111db576040517f08c379a00000000000000000000000000000000000000000000000000000000081526004016111d2906145ac565b60405180910390fd5b6111e560006128f4565b565b6111ef6124f9565b73ffffffffffffffffffffffffffffffffffffffff1661120d61186f565b73ffffffffffffffffffffffffffffffffffffffff1614611263576040517f08c379a000000000000000000000000000000000000000000000000000000000815260040161125a906145ac565b60405180910390fd5b60005b828290508110156113e657600073ffffffffffffffffffffffffffffffffffffffff168383838181106112c2577f4e487b7100000000000000000000000000000000000000000000000000000000600052603260045260246000fd5b90506020020160208101906112d79190613a08565b73ffffffffffffffffffffffffffffffffffffffff16141561132e576040517f08c379a0000000000000000000000000000000000000000000000000000000008152600401611325906145cc565b60405180910390fd5b6001600d600085858581811061136d577f4e487b7100000000000000000000000000000000000000000000000000000000600052603260045260246000fd5b90506020020160208101906113829190613a08565b73ffffffffffffffffffffffffffffffffffffffff1673ffffffffffffffffffffffffffffffffffffffff16815260200190815260200160002060006101000a81548160ff02191690831515021790555080806113de90614a6c565b915050611266565b505050565b6113f36124f9565b73ffffffffffffffffffffffffffffffffffffffff1661141161186f565b73ffffffffffffffffffffffffffffffffffffffff1614611467576040517f08c379a000000000000000000000000000000000000000000000000000000000815260040161145e906145ac565b60405180910390fd5b60008111801561147957506010548111155b6114b8576040517f08c379a00000000000000000000000000000000000000000000000000000000081526004016114af9061444c565b60405180910390fd5b60005b818110156114ed5760006114cd610be6565b90506114d984826129ba565b5080806114e590614a6c565b9150506114bb565b50611503816010546129d890919063ffffffff16565b6010819055505050565b662386f26fc1000081565b600c60009054906101000a900460ff16611567576040517f08c379a000000000000000000000000000000000000000000000000000000000815260040161155e9061442c565b60405180910390fd5b600081118015611578575060058111155b6115b7576040517f08c379a00000000000000000000000000000000000000000000000000000000081526004016115ae9061434c565b60405180910390fd5b607b6115d3826115c5610be6565b6129ee90919063ffffffff16565b1115611614576040517f08c379a000000000000000000000000000000000000000000000000000000000815260040161160b9061454c565b60405180910390fd5b61162e81662386f26fc10000612a0490919063ffffffff16565b341015611670576040517f08c379a0000000000000000000000000000000000000000000000000000000008152600401611667906144ac565b60405180910390fd5b60005b818110156116ef576000611685610be6565b9050607b611691610be6565b10156116db576116a133826129ba565b7f3f30939db62a9977a0d3dd0a8776309093ded9da114c6095d1d189bcb43854dd81336040516116d2929190614707565b60405180910390a15b5080806116e790614a6c565b915050611673565b5050565b60606000611700836110a7565b9050600081141561178357600067ffffffffffffffff81111561174c577f4e487b7100000000000000000000000000000000000000000000000000000000600052604160045260246000fd5b60405190808252806020026020018201604052801561177a5781602001602082028036833780820191505090505b5091505061186a565b60008167ffffffffffffffff8111156117c5577f4e487b7100000000000000000000000000000000000000000000000000000000600052604160045260246000fd5b6040519080825280602002602001820160405280156117f35781602001602082028036833780820191505090505b50905060005b828110156118635761180b8582610c53565b828281518110611844577f4e487b7100000000000000000000000000000000000000000000000000000000600052603260045260246000fd5b602002602001018181525050808061185b90614a6c565b9150506117f9565b8193505050505b919050565b6000600660009054906101000a900473ffffffffffffffffffffffffffffffffffffffff16905090565b600f5481565b6060600180546118ae90614a09565b80601f01602080910402602001604051908101604052809291908181526020018280546118da90614a09565b80156119275780601f106118fc57610100808354040283529160200191611927565b820191906000526020600020905b81548152906001019060200180831161190a57829003601f168201915b5050505050905090565b61194361193c6124f9565b8383612a1a565b5050565b61194f6124f9565b73ffffffffffffffffffffffffffffffffffffffff1661196d61186f565b73ffffffffffffffffffffffffffffffffffffffff16146119c3576040517f08c379a00000000000000000000000000000000000000000000000000000000081526004016119ba906145ac565b60405180910390fd5b6001600c60026101000a81548160ff021916908315150217905550565b600c60019054906101000a900460ff16611a2f576040517f08c379a0000000000000000000000000000000000000000000000000000000008152600401611a269061468c565b60405180910390fd5b600d60003373ffffffffffffffffffffffffffffffffffffffff1673ffffffffffffffffffffffffffffffffffffffff16815260200190815260200160002060009054906101000a900460ff16611abb576040517f08c379a0000000000000000000000000000000000000000000000000000000008152600401611ab29061440c565b60405180910390fd5b607b611ad782611ac9610be6565b6129ee90919063ffffffff16565b1115611b18576040517f08c379a0000000000000000000000000000000000000000000000000000000008152600401611b0f906145ec565b60405180910390fd5b600081118015611b2a5750600f548111155b611b69576040517f08c379a0000000000000000000000000000000000000000000000000000000008152600401611b60906146cc565b60405180910390fd5b600f54611bbe82600e60003373ffffffffffffffffffffffffffffffffffffffff1673ffffffffffffffffffffffffffffffffffffffff168152602001908152602001600020546129ee90919063ffffffff16565b1115611bff576040517f08c379a0000000000000000000000000000000000000000000000000000000008152600401611bf6906146ac565b60405180910390fd5b611c1981662386f26fc10000612a0490919063ffffffff16565b341015611c5b576040517f08c379a0000000000000000000000000000000000000000000000000000000008152600401611c52906144ac565b60405180910390fd5b60005b81811015611d44576000611c836001611c75610be6565b6129ee90919063ffffffff16565b9050607b611c8f610be6565b1015611d30576001600e60003373ffffffffffffffffffffffffffffffffffffffff1673ffffffffffffffffffffffffffffffffffffffff1681526020019081526020016000206000828254611ce5919061483e565b92505081905550611cf633826129ba565b7f3f30939db62a9977a0d3dd0a8776309093ded9da114c6095d1d189bcb43854dd8133604051611d27929190614707565b60405180910390a15b508080611d3c90614a6c565b915050611c5e565b5050565b611d506124f9565b73ffffffffffffffffffffffffffffffffffffffff16611d6e61186f565b73ffffffffffffffffffffffffffffffffffffffff1614611dc4576040517f08c379a0000000000000000000000000000000000000000000000000000000008152600401611dbb906145ac565b60405180910390fd5b60005b82829050811015611f4757600073ffffffffffffffffffffffffffffffffffffffff16838383818110611e23577f4e487b7100000000000000000000000000000000000000000000000000000000600052603260045260246000fd5b9050602002016020810190611e389190613a08565b73ffffffffffffffffffffffffffffffffffffffff161415611e8f576040517f08c379a0000000000000000000000000000000000000000000000000000000008152600401611e86906145cc565b60405180910390fd5b6000600d6000858585818110611ece577f4e487b7100000000000000000000000000000000000000000000000000000000600052603260045260246000fd5b9050602002016020810190611ee39190613a08565b73ffffffffffffffffffffffffffffffffffffffff1673ffffffffffffffffffffffffffffffffffffffff16815260200190815260200160002060006101000a81548160ff0219169083151502179055508080611f3f90614a6c565b915050611dc7565b505050565b611f5d611f576124f9565b836125ba565b611f9c576040517f08c379a0000000000000000000000000000000000000000000000000000000008152600401611f939061464c565b60405180910390fd5b611fa884848484612b87565b50505050565b6060611fb98261248d565b611ff8576040517f08c379a0000000000000000000000000000000000000000000000000000000008152600401611fef9061436c565b60405180910390fd5b6000612002612be3565b905060001515600c60029054906101000a900460ff16151514156120415760405180608001604052806041815260200161538d6041913991505061208e565b600081511161205f576040518060200160405280600081525061208a565b8061206984612c75565b60405160200161207a929190614242565b6040516020818303038152906040525b9150505b919050565b61209b6124f9565b73ffffffffffffffffffffffffffffffffffffffff166120b961186f565b73ffffffffffffffffffffffffffffffffffffffff161461210f576040517f08c379a0000000000000000000000000000000000000000000000000000000008152600401612106906145ac565b60405180910390fd5b600c60009054906101000a900460ff1615600c60006101000a81548160ff021916908315150217905550565b6121436124f9565b73ffffffffffffffffffffffffffffffffffffffff1661216161186f565b73ffffffffffffffffffffffffffffffffffffffff16146121b7576040517f08c379a00000000000000000000000000000000000000000000000000000000081526004016121ae906145ac565b60405180910390fd5b80600f8190555050565b6000600560008473ffffffffffffffffffffffffffffffffffffffff1673ffffffffffffffffffffffffffffffffffffffff16815260200190815260200160002060008373ffffffffffffffffffffffffffffffffffffffff1673ffffffffffffffffffffffffffffffffffffffff16815260200190815260200160002060009054906101000a900460ff16905092915050565b600c60009054906101000a900460ff1681565b6122706124f9565b73ffffffffffffffffffffffffffffffffffffffff1661228e61186f565b73ffffffffffffffffffffffffffffffffffffffff16146122e4576040517f08c379a00000000000000000000000000000000000000000000000000000000081526004016122db906145ac565b60405180910390fd5b600c60019054906101000a900460ff1615600c60016101000a81548160ff021916908315150217905550565b6123186124f9565b73ffffffffffffffffffffffffffffffffffffffff1661233661186f565b73ffffffffffffffffffffffffffffffffffffffff161461238c576040517f08c379a0000000000000000000000000000000000000000000000000000000008152600401612383906145ac565b60405180910390fd5b600073ffffffffffffffffffffffffffffffffffffffff168173ffffffffffffffffffffffffffffffffffffffff1614156123fc576040517f08c379a00000000000000000000000000000000000000000000000000000000081526004016123f3906143cc565b60405180910390fd5b612405816128f4565b50565b607b81565b60105481565b60007f780e9d63000000000000000000000000000000000000000000000000000000007bffffffffffffffffffffffffffffffffffffffffffffffffffffffff1916827bffffffffffffffffffffffffffffffffffffffffffffffffffffffff19161480612486575061248582612e22565b5b9050919050565b60008073ffffffffffffffffffffffffffffffffffffffff166002600084815260200190815260200160002060009054906101000a900473ffffffffffffffffffffffffffffffffffffffff1673ffffffffffffffffffffffffffffffffffffffff1614159050919050565b600033905090565b816004600083815260200190815260200160002060006101000a81548173ffffffffffffffffffffffffffffffffffffffff021916908373ffffffffffffffffffffffffffffffffffffffff160217905550808273ffffffffffffffffffffffffffffffffffffffff1661257483610f67565b73ffffffffffffffffffffffffffffffffffffffff167f8c5be1e5ebec7d5bd14f71427d1e84f3dd0314c0f7b2291e5b200ac8c7c3b92560405160405180910390a45050565b60006125c58261248d565b612604576040517f08c379a00000000000000000000000000000000000000000000000000000000081526004016125fb906144cc565b60405180910390fd5b600061260f83610f67565b90508073ffffffffffffffffffffffffffffffffffffffff168473ffffffffffffffffffffffffffffffffffffffff16148061267e57508373ffffffffffffffffffffffffffffffffffffffff16612666846109ee565b73ffffffffffffffffffffffffffffffffffffffff16145b8061268f575061268e81856121c1565b5b91505092915050565b8273ffffffffffffffffffffffffffffffffffffffff166126b882610f67565b73ffffffffffffffffffffffffffffffffffffffff161461270e576040517f08c379a00000000000000000000000000000000000000000000000000000000081526004016127059061460c565b60405180910390fd5b600073ffffffffffffffffffffffffffffffffffffffff168273ffffffffffffffffffffffffffffffffffffffff16141561277e576040517f08c379a00000000000000000000000000000000000000000000000000000000081526004016127759061446c565b60405180910390fd5b612789838383612f04565b612794600082612501565b6001600360008573ffffffffffffffffffffffffffffffffffffffff1673ffffffffffffffffffffffffffffffffffffffff16815260200190815260200160002060008282546127e4919061491f565b925050819055506001600360008473ffffffffffffffffffffffffffffffffffffffff1673ffffffffffffffffffffffffffffffffffffffff168152602001908152602001600020600082825461283b919061483e565b92505081905550816002600083815260200190815260200160002060006101000a81548173ffffffffffffffffffffffffffffffffffffffff021916908373ffffffffffffffffffffffffffffffffffffffff160217905550808273ffffffffffffffffffffffffffffffffffffffff168473ffffffffffffffffffffffffffffffffffffffff167fddf252ad1be2c89b69c2b068fc378daa952ba7f163c4a11628f55a4df523b3ef60405160405180910390a4505050565b6000600660009054906101000a900473ffffffffffffffffffffffffffffffffffffffff16905081600660006101000a81548173ffffffffffffffffffffffffffffffffffffffff021916908373ffffffffffffffffffffffffffffffffffffffff1602179055508173ffffffffffffffffffffffffffffffffffffffff168173ffffffffffffffffffffffffffffffffffffffff167f8be0079c531659141344cd1fd0a4f28419497f9722a3daafe3b4186f6b6457e060405160405180910390a35050565b6129d4828260405180602001604052806000815250612f14565b5050565b600081836129e6919061491f565b905092915050565b600081836129fc919061483e565b905092915050565b60008183612a1291906148c5565b905092915050565b8173ffffffffffffffffffffffffffffffffffffffff168373ffffffffffffffffffffffffffffffffffffffff161415612a89576040517f08c379a0000000000000000000000000000000000000000000000000000000008152600401612a809061448c565b60405180910390fd5b80600560008573ffffffffffffffffffffffffffffffffffffffff1673ffffffffffffffffffffffffffffffffffffffff16815260200190815260200160002060008473ffffffffffffffffffffffffffffffffffffffff1673ffffffffffffffffffffffffffffffffffffffff16815260200190815260200160002060006101000a81548160ff0219169083151502179055508173ffffffffffffffffffffffffffffffffffffffff168373ffffffffffffffffffffffffffffffffffffffff167f17307eab39ab6107e8899845ad3d59bd9653f200f220920489ca2b5937696c3183604051612b7a919061430f565b60405180910390a3505050565b612b92848484612698565b612b9e84848484612f6f565b612bdd576040517f08c379a0000000000000000000000000000000000000000000000000000000008152600401612bd4906143ac565b60405180910390fd5b50505050565b6060600b8054612bf290614a09565b80601f0160208091040260200160405190810160405280929190818152602001828054612c1e90614a09565b8015612c6b5780601f10612c4057610100808354040283529160200191612c6b565b820191906000526020600020905b815481529060010190602001808311612c4e57829003601f168201915b5050505050905090565b60606000821415612cbd576040518060400160405280600181526020017f30000000000000000000000000000000000000000000000000000000000000008152509050612e1d565b600082905060005b60008214612cef578080612cd890614a6c565b915050600a82612ce89190614894565b9150612cc5565b60008167ffffffffffffffff811115612d31577f4e487b7100000000000000000000000000000000000000000000000000000000600052604160045260246000fd5b6040519080825280601f01601f191660200182016040528015612d635781602001600182028036833780820191505090505b5090505b60008514612e1657600182612d7c919061491f565b9150600a85612d8b9190614ab5565b6030612d97919061483e565b60f81b818381518110612dd3577f4e487b7100000000000000000000000000000000000000000000000000000000600052603260045260246000fd5b60200101907effffffffffffffffffffffffffffffffffffffffffffffffffffffffffffff1916908160001a905350600a85612e0f9190614894565b9450612d67565b8093505050505b919050565b60007f80ac58cd000000000000000000000000000000000000000000000000000000007bffffffffffffffffffffffffffffffffffffffffffffffffffffffff1916827bffffffffffffffffffffffffffffffffffffffffffffffffffffffff19161480612eed57507f5b5e139f000000000000000000000000000000000000000000000000000000007bffffffffffffffffffffffffffffffffffffffffffffffffffffffff1916827bffffffffffffffffffffffffffffffffffffffffffffffffffffffff1916145b80612efd5750612efc82613106565b5b9050919050565b612f0f838383613170565b505050565b612f1e8383613284565b612f2b6000848484612f6f565b612f6a576040517f08c379a0000000000000000000000000000000000000000000000000000000008152600401612f61906143ac565b60405180910390fd5b505050565b6000612f908473ffffffffffffffffffffffffffffffffffffffff16613452565b156130f9578373ffffffffffffffffffffffffffffffffffffffff1663150b7a02612fb96124f9565b8786866040518563ffffffff1660e01b8152600401612fdb94939291906142a1565b602060405180830381600087803b158015612ff557600080fd5b505af192505050801561302657506040513d601f19601f820116820180604052508101906130239190613c1d565b60015b6130a9573d8060008114613056576040519150601f19603f3d011682016040523d82523d6000602084013e61305b565b606091505b506000815114156130a1576040517f08c379a0000000000000000000000000000000000000000000000000000000008152600401613098906143ac565b60405180910390fd5b805181602001fd5b63150b7a0260e01b7bffffffffffffffffffffffffffffffffffffffffffffffffffffffff1916817bffffffffffffffffffffffffffffffffffffffffffffffffffffffff1916149150506130fe565b600190505b949350505050565b60007f01ffc9a7000000000000000000000000000000000000000000000000000000007bffffffffffffffffffffffffffffffffffffffffffffffffffffffff1916827bffffffffffffffffffffffffffffffffffffffffffffffffffffffff1916149050919050565b61317b838383613465565b600073ffffffffffffffffffffffffffffffffffffffff168373ffffffffffffffffffffffffffffffffffffffff1614156131be576131b98161346a565b6131fd565b8173ffffffffffffffffffffffffffffffffffffffff168373ffffffffffffffffffffffffffffffffffffffff16146131fc576131fb83826134b3565b5b5b600073ffffffffffffffffffffffffffffffffffffffff168273ffffffffffffffffffffffffffffffffffffffff1614156132405761323b81613620565b61327f565b8273ffffffffffffffffffffffffffffffffffffffff168273ffffffffffffffffffffffffffffffffffffffff161461327e5761327d8282613763565b5b5b505050565b600073ffffffffffffffffffffffffffffffffffffffff168273ffffffffffffffffffffffffffffffffffffffff1614156132f4576040517f08c379a00000000000000000000000000000000000000000000000000000000081526004016132eb9061456c565b60405180910390fd5b6132fd8161248d565b1561333d576040517f08c379a0000000000000000000000000000000000000000000000000000000008152600401613334906143ec565b60405180910390fd5b61334960008383612f04565b6001600360008473ffffffffffffffffffffffffffffffffffffffff1673ffffffffffffffffffffffffffffffffffffffff1681526020019081526020016000206000828254613399919061483e565b92505081905550816002600083815260200190815260200160002060006101000a81548173ffffffffffffffffffffffffffffffffffffffff021916908373ffffffffffffffffffffffffffffffffffffffff160217905550808273ffffffffffffffffffffffffffffffffffffffff16600073ffffffffffffffffffffffffffffffffffffffff167fddf252ad1be2c89b69c2b068fc378daa952ba7f163c4a11628f55a4df523b3ef60405160405180910390a45050565b600080823b905060008111915050919050565b505050565b600980549050600a600083815260200190815260200160002081905550600981908060018154018082558091505060019003906000526020600020016000909190919091505550565b600060016134c0846110a7565b6134ca919061491f565b90506000600860008481526020019081526020016000205490508181146135af576000600760008673ffffffffffffffffffffffffffffffffffffffff1673ffffffffffffffffffffffffffffffffffffffff168152602001908152602001600020600084815260200190815260200160002054905080600760008773ffffffffffffffffffffffffffffffffffffffff1673ffffffffffffffffffffffffffffffffffffffff168152602001908152602001600020600084815260200190815260200160002081905550816008600083815260200190815260200160002081905550505b6008600084815260200190815260200160002060009055600760008573ffffffffffffffffffffffffffffffffffffffff1673ffffffffffffffffffffffffffffffffffffffff16815260200190815260200160002060008381526020019081526020016000206000905550505050565b60006001600980549050613634919061491f565b90506000600a600084815260200190815260200160002054905060006009838154811061368a577f4e487b7100000000000000000000000000000000000000000000000000000000600052603260045260246000fd5b9060005260206000200154905080600983815481106136d2577f4e487b7100000000000000000000000000000000000000000000000000000000600052603260045260246000fd5b906000526020600020018190555081600a600083815260200190815260200160002081905550600a6000858152602001908152602001600020600090556009805480613747577f4e487b7100000000000000000000000000000000000000000000000000000000600052603160045260246000fd5b6001900381819060005260206000200160009055905550505050565b600061376e836110a7565b905081600760008573ffffffffffffffffffffffffffffffffffffffff1673ffffffffffffffffffffffffffffffffffffffff168152602001908152602001600020600083815260200190815260200160002081905550806008600084815260200190815260200160002081905550505050565b8280546137ee90614a09565b90600052602060002090601f0160209004810192826138105760008555613857565b82601f1061382957805160ff1916838001178555613857565b82800160010185558215613857579182015b8281111561385657825182559160200191906001019061383b565b5b5090506138649190613868565b5090565b5b80821115613881576000816000905550600101613869565b5090565b600061389861389384614755565b614730565b9050828152602081018484840111156138b057600080fd5b6138bb8482856149c7565b509392505050565b60006138d66138d184614786565b614730565b9050828152602081018484840111156138ee57600080fd5b6138f98482856149c7565b509392505050565b60008135905061391081615330565b92915050565b60008083601f84011261392857600080fd5b8235905067ffffffffffffffff81111561394157600080fd5b60208301915083602082028301111561395957600080fd5b9250929050565b60008135905061396f81615347565b92915050565b6000813590506139848161535e565b92915050565b6000815190506139998161535e565b92915050565b600082601f8301126139b057600080fd5b81356139c0848260208601613885565b91505092915050565b600082601f8301126139da57600080fd5b81356139ea8482602086016138c3565b91505092915050565b600081359050613a0281615375565b92915050565b600060208284031215613a1a57600080fd5b6000613a2884828501613901565b91505092915050565b60008060408385031215613a4457600080fd5b6000613a5285828601613901565b9250506020613a6385828601613901565b9150509250929050565b600080600060608486031215613a8257600080fd5b6000613a9086828701613901565b9350506020613aa186828701613901565b9250506040613ab2868287016139f3565b9150509250925092565b60008060008060808587031215613ad257600080fd5b6000613ae087828801613901565b9450506020613af187828801613901565b9350506040613b02878288016139f3565b925050606085013567ffffffffffffffff811115613b1f57600080fd5b613b2b8782880161399f565b91505092959194509250565b60008060408385031215613b4a57600080fd5b6000613b5885828601613901565b9250506020613b6985828601613960565b9150509250929050565b60008060408385031215613b8657600080fd5b6000613b9485828601613901565b9250506020613ba5858286016139f3565b9150509250929050565b60008060208385031215613bc257600080fd5b600083013567ffffffffffffffff811115613bdc57600080fd5b613be885828601613916565b92509250509250929050565b600060208284031215613c0657600080fd5b6000613c1484828501613975565b91505092915050565b600060208284031215613c2f57600080fd5b6000613c3d8482850161398a565b91505092915050565b600060208284031215613c5857600080fd5b600082013567ffffffffffffffff811115613c7257600080fd5b613c7e848285016139c9565b91505092915050565b600060208284031215613c9957600080fd5b6000613ca7848285016139f3565b91505092915050565b6000613cbc8383614224565b60208301905092915050565b613cd181614953565b82525050565b6000613ce2826147c7565b613cec81856147f5565b9350613cf7836147b7565b8060005b83811015613d28578151613d0f8882613cb0565b9750613d1a836147e8565b925050600181019050613cfb565b5085935050505092915050565b613d3e81614965565b82525050565b6000613d4f826147d2565b613d598185614806565b9350613d698185602086016149d6565b613d7281614ba2565b840191505092915050565b6000613d88826147dd565b613d928185614822565b9350613da28185602086016149d6565b613dab81614ba2565b840191505092915050565b6000613dc1826147dd565b613dcb8185614833565b9350613ddb8185602086016149d6565b80840191505092915050565b6000613df4602a83614822565b9150613dff82614bb3565b604082019050919050565b6000613e17602e83614822565b9150613e2282614c02565b604082019050919050565b6000613e3a602b83614822565b9150613e4582614c51565b604082019050919050565b6000613e5d603283614822565b9150613e6882614ca0565b604082019050919050565b6000613e80602683614822565b9150613e8b82614cef565b604082019050919050565b6000613ea3601c83614822565b9150613eae82614d3e565b602082019050919050565b6000613ec6601f83614822565b9150613ed182614d67565b602082019050919050565b6000613ee9602183614822565b9150613ef482614d90565b604082019050919050565b6000613f0c602083614822565b9150613f1782614ddf565b602082019050919050565b6000613f2f602483614822565b9150613f3a82614e08565b604082019050919050565b6000613f52601983614822565b9150613f5d82614e57565b602082019050919050565b6000613f75601f83614822565b9150613f8082614e80565b602082019050919050565b6000613f98602c83614822565b9150613fa382614ea9565b604082019050919050565b6000613fbb603883614822565b9150613fc682614ef8565b604082019050919050565b6000613fde602a83614822565b9150613fe982614f47565b604082019050919050565b6000614001602983614822565b915061400c82614f96565b604082019050919050565b6000614024602a83614822565b915061402f82614fe5565b604082019050919050565b6000614047602083614822565b915061405282615034565b602082019050919050565b600061406a602c83614822565b91506140758261505d565b604082019050919050565b600061408d600583614833565b9150614098826150ac565b600582019050919050565b60006140b0602083614822565b91506140bb826150d5565b602082019050919050565b60006140d3601a83614822565b91506140de826150fe565b602082019050919050565b60006140f6602983614822565b915061410182615127565b604082019050919050565b6000614119602983614822565b915061412482615176565b604082019050919050565b600061413c602183614822565b9150614147826151c5565b604082019050919050565b600061415f600083614817565b915061416a82615214565b600082019050919050565b6000614182603183614822565b915061418d82615217565b604082019050919050565b60006141a5602c83614822565b91506141b082615266565b604082019050919050565b60006141c8601583614822565b91506141d3826152b5565b602082019050919050565b60006141eb601c83614822565b91506141f6826152de565b602082019050919050565b600061420e602083614822565b915061421982615307565b602082019050919050565b61422d816149bd565b82525050565b61423c816149bd565b82525050565b600061424e8285613db6565b915061425a8284613db6565b915061426582614080565b91508190509392505050565b600061427c82614152565b9150819050919050565b600060208201905061429b6000830184613cc8565b92915050565b60006080820190506142b66000830187613cc8565b6142c36020830186613cc8565b6142d06040830185614233565b81810360608301526142e28184613d44565b905095945050505050565b600060208201905081810360008301526143078184613cd7565b905092915050565b60006020820190506143246000830184613d35565b92915050565b600060208201905081810360008301526143448184613d7d565b905092915050565b6000602082019050818103600083015261436581613de7565b9050919050565b6000602082019050818103600083015261438581613e0a565b9050919050565b600060208201905081810360008301526143a581613e2d565b9050919050565b600060208201905081810360008301526143c581613e50565b9050919050565b600060208201905081810360008301526143e581613e73565b9050919050565b6000602082019050818103600083015261440581613e96565b9050919050565b6000602082019050818103600083015261442581613eb9565b9050919050565b6000602082019050818103600083015261444581613edc565b9050919050565b6000602082019050818103600083015261446581613eff565b9050919050565b6000602082019050818103600083015261448581613f22565b9050919050565b600060208201905081810360008301526144a581613f45565b9050919050565b600060208201905081810360008301526144c581613f68565b9050919050565b600060208201905081810360008301526144e581613f8b565b9050919050565b6000602082019050818103600083015261450581613fae565b9050919050565b6000602082019050818103600083015261452581613fd1565b9050919050565b6000602082019050818103600083015261454581613ff4565b9050919050565b6000602082019050818103600083015261456581614017565b9050919050565b600060208201905081810360008301526145858161403a565b9050919050565b600060208201905081810360008301526145a58161405d565b9050919050565b600060208201905081810360008301526145c5816140a3565b9050919050565b600060208201905081810360008301526145e5816140c6565b9050919050565b60006020820190508181036000830152614605816140e9565b9050919050565b600060208201905081810360008301526146258161410c565b9050919050565b600060208201905081810360008301526146458161412f565b9050919050565b6000602082019050818103600083015261466581614175565b9050919050565b6000602082019050818103600083015261468581614198565b9050919050565b600060208201905081810360008301526146a5816141bb565b9050919050565b600060208201905081810360008301526146c5816141de565b9050919050565b600060208201905081810360008301526146e581614201565b9050919050565b60006020820190506147016000830184614233565b92915050565b600060408201905061471c6000830185614233565b6147296020830184613cc8565b9392505050565b600061473a61474b565b90506147468282614a3b565b919050565b6000604051905090565b600067ffffffffffffffff8211156147705761476f614b73565b5b61477982614ba2565b9050602081019050919050565b600067ffffffffffffffff8211156147a1576147a0614b73565b5b6147aa82614ba2565b9050602081019050919050565b6000819050602082019050919050565b600081519050919050565b600081519050919050565b600081519050919050565b6000602082019050919050565b600082825260208201905092915050565b600082825260208201905092915050565b600081905092915050565b600082825260208201905092915050565b600081905092915050565b6000614849826149bd565b9150614854836149bd565b9250827fffffffffffffffffffffffffffffffffffffffffffffffffffffffffffffffff0382111561488957614888614ae6565b5b828201905092915050565b600061489f826149bd565b91506148aa836149bd565b9250826148ba576148b9614b15565b5b828204905092915050565b60006148d0826149bd565b91506148db836149bd565b9250817fffffffffffffffffffffffffffffffffffffffffffffffffffffffffffffffff048311821515161561491457614913614ae6565b5b828202905092915050565b600061492a826149bd565b9150614935836149bd565b92508282101561494857614947614ae6565b5b828203905092915050565b600061495e8261499d565b9050919050565b60008115159050919050565b60007fffffffff0000000000000000000000000000000000000000000000000000000082169050919050565b600073ffffffffffffffffffffffffffffffffffffffff82169050919050565b6000819050919050565b82818337600083830152505050565b60005b838110156149f45780820151818401526020810190506149d9565b83811115614a03576000848401525b50505050565b60006002820490506001821680614a2157607f821691505b60208210811415614a3557614a34614b44565b5b50919050565b614a4482614ba2565b810181811067ffffffffffffffff82111715614a6357614a62614b73565b5b80604052505050565b6000614a77826149bd565b91507fffffffffffffffffffffffffffffffffffffffffffffffffffffffffffffffff821415614aaa57614aa9614ae6565b5b600182019050919050565b6000614ac0826149bd565b9150614acb836149bd565b925082614adb57614ada614b15565b5b828206905092915050565b7f4e487b7100000000000000000000000000000000000000000000000000000000600052601160045260246000fd5b7f4e487b7100000000000000000000000000000000000000000000000000000000600052601260045260246000fd5b7f4e487b7100000000000000000000000000000000000000000000000000000000600052602260045260246000fd5b7f4e487b7100000000000000000000000000000000000000000000000000000000600052604160045260246000fd5b6000601f19601f8301169050919050565b7f43616e206f6e6c79206d696e74206f6e65206f72206d6f726520746f6b656e7360008201527f20617420612074696d6500000000000000000000000000000000000000000000602082015250565b7f4552433732314d657461646174613a2055524920717565727920666f72206e6f60008201527f6e6578697374656e20746f6b656e000000000000000000000000000000000000602082015250565b7f455243373231456e756d657261626c653a206f776e657220696e646578206f7560008201527f74206f6620626f756e6473000000000000000000000000000000000000000000602082015250565b7f4552433732313a207472616e7366657220746f206e6f6e20455243373231526560008201527f63656976657220696d706c656d656e7465720000000000000000000000000000602082015250565b7f4f776e61626c653a206e6577206f776e657220697320746865207a65726f206160008201527f6464726573730000000000000000000000000000000000000000000000000000602082015250565b7f4552433732313a20746f6b656e20616c7265616479206d696e74656400000000600082015250565b7f596f7520617265206e6f74206f6e207468652050726573616c65204c69737400600082015250565b7f53616c65206d7573742062652061637469766520746f206d696e7420546f6b6560008201527f6e00000000000000000000000000000000000000000000000000000000000000602082015250565b7f4e6f7420656e6f7567682072657365727665206c65667420666f72207465616d600082015250565b7f4552433732313a207472616e7366657220746f20746865207a65726f2061646460008201527f7265737300000000000000000000000000000000000000000000000000000000602082015250565b7f4552433732313a20617070726f766520746f2063616c6c657200000000000000600082015250565b7f45746865722076616c75652073656e74206973206e6f7420636f727265637400600082015250565b7f4552433732313a206f70657261746f7220717565727920666f72206e6f6e657860008201527f697374656e7420746f6b656e0000000000000000000000000000000000000000602082015250565b7f4552433732313a20617070726f76652063616c6c6572206973206e6f74206f7760008201527f6e6572206e6f7220617070726f76656420666f7220616c6c0000000000000000602082015250565b7f4552433732313a2062616c616e636520717565727920666f7220746865207a6560008201527f726f206164647265737300000000000000000000000000000000000000000000602082015250565b7f4552433732313a206f776e657220717565727920666f72206e6f6e657869737460008201527f656e7420746f6b656e0000000000000000000000000000000000000000000000602082015250565b7f507572636861736520776f756c6420657863656564206d617820737570706c7960008201527f206f6620746f6b656e7300000000000000000000000000000000000000000000602082015250565b7f4552433732313a206d696e7420746f20746865207a65726f2061646472657373600082015250565b7f4552433732313a20617070726f76656420717565727920666f72206e6f6e657860008201527f697374656e7420746f6b656e0000000000000000000000000000000000000000602082015250565b7f2e6a736f6e000000000000000000000000000000000000000000000000000000600082015250565b7f4f776e61626c653a2063616c6c6572206973206e6f7420746865206f776e6572600082015250565b7f43616e27742061646420746865206e756c6c2061646472657373000000000000600082015250565b7f507572636861736520776f756c6420657863656564206d617820737570706c7960008201527f206f6620746f6b656e0000000000000000000000000000000000000000000000602082015250565b7f4552433732313a207472616e73666572206f6620746f6b656e2074686174206960008201527f73206e6f74206f776e0000000000000000000000000000000000000000000000602082015250565b7f4552433732313a20617070726f76616c20746f2063757272656e74206f776e6560008201527f7200000000000000000000000000000000000000000000000000000000000000602082015250565b50565b7f4552433732313a207472616e736665722063616c6c6572206973206e6f74206f60008201527f776e6572206e6f7220617070726f766564000000000000000000000000000000602082015250565b7f455243373231456e756d657261626c653a20676c6f62616c20696e646578206f60008201527f7574206f6620626f756e64730000000000000000000000000000000000000000602082015250565b7f50726573616c65206973206e6f74206163746976650000000000000000000000600082015250565b7f50757263686173652065786365656473206d617820616c6c6f77656400000000600082015250565b7f43616e6e6f742070757263686173652074686973206d616e7920746f6b656e73600082015250565b61533981614953565b811461534457600080fd5b50565b61535081614965565b811461535b57600080fd5b50565b61536781614971565b811461537257600080fd5b50565b61537e816149bd565b811461538957600080fd5b5056fe697066733a2f2f516d56316162755a57554c616f4a41624b554741317277615a48347251426d6777375165464868335a59555742392f68696464656e2e6a736f6ea2646970667358221220d19e83079f859315a2330a5b0488a45c25ace9fb77c15934b755daaeb378431264736f6c63430008040033",
  "linkReferences": {},
  "deployedLinkReferences": {}
}