{
  "_format": "hh-sol-artifact-1",
  "contractName": "EggTeam",
  "sourceName": "contracts/EggTeam.sol",
  "abi": [
    {
      "inputs": [],
      "stateMutability": "nonpayable",
      "type": "constructor"
    },
    {
      "anonymous": false,
      "inputs": [
        {
          "indexed": true,
          "internalType": "address",
          "name": "owner",
          "type": "address"
        },
        {
          "indexed": true,
          "internalType": "address",
          "name": "approved",
          "type": "address"
        },
        {
          "indexed": true,
          "internalType": "uint256",
          "name": "tokenId",
          "type": "uint256"
        }
      ],
      "name": "Approval",
      "type": "event"
    },
    {
      "anonymous": false,
      "inputs": [
        {
          "indexed": true,
          "internalType": "address",
          "name": "owner",
          "type": "address"
        },
        {
          "indexed": true,
          "internalType": "address",
          "name": "operator",
          "type": "address"
        },
        {
          "indexed": false,
          "internalType": "bool",
          "name": "approved",
          "type": "bool"
        }
      ],
      "name": "ApprovalForAll",
      "type": "event"
    },
    {
      "anonymous": false,
      "inputs": [
        {
          "indexed": false,
          "internalType": "uint256",
          "name": "tokenId",
          "type": "uint256"
        },
        {
          "indexed": false,
          "internalType": "address",
          "name": "owner",
          "type": "address"
        }
      ],
      "name": "EggMinted",
      "type": "event"
    },
    {
      "anonymous": false,
      "inputs": [
        {
          "indexed": true,
          "internalType": "address",
          "name": "previousOwner",
          "type": "address"
        },
        {
          "indexed": true,
          "internalType": "address",
          "name": "newOwner",
          "type": "address"
        }
      ],
      "name": "OwnershipTransferred",
      "type": "event"
    },
    {
      "anonymous": false,
      "inputs": [
        {
          "indexed": true,
          "internalType": "address",
          "name": "from",
          "type": "address"
        },
        {
          "indexed": true,
          "internalType": "address",
          "name": "to",
          "type": "address"
        },
        {
          "indexed": true,
          "internalType": "uint256",
          "name": "tokenId",
          "type": "uint256"
        }
      ],
      "name": "Transfer",
      "type": "event"
    },
    {
      "inputs": [],
      "name": "MAX_TOKENS",
      "outputs": [
        {
          "internalType": "uint256",
          "name": "",
          "type": "uint256"
        }
      ],
      "stateMutability": "view",
      "type": "function"
    },
    {
      "inputs": [
        {
          "internalType": "address[]",
          "name": "addresses",
          "type": "address[]"
        }
      ],
      "name": "addToPresaleList",
      "outputs": [],
      "stateMutability": "nonpayable",
      "type": "function"
    },
    {
      "inputs": [
        {
          "internalType": "address",
          "name": "to",
          "type": "address"
        },
        {
          "internalType": "uint256",
          "name": "tokenId",
          "type": "uint256"
        }
      ],
      "name": "approve",
      "outputs": [],
      "stateMutability": "nonpayable",
      "type": "function"
    },
    {
      "inputs": [
        {
          "internalType": "address",
          "name": "owner",
          "type": "address"
        }
      ],
      "name": "balanceOf",
      "outputs": [
        {
          "internalType": "uint256",
          "name": "",
          "type": "uint256"
        }
      ],
      "stateMutability": "view",
      "type": "function"
    },
    {
      "inputs": [],
      "name": "baseURI",
      "outputs": [
        {
          "internalType": "string",
          "name": "",
          "type": "string"
        }
      ],
      "stateMutability": "view",
      "type": "function"
    },
    {
      "inputs": [],
      "name": "devReserve",
      "outputs": [
        {
          "internalType": "uint256",
          "name": "",
          "type": "uint256"
        }
      ],
      "stateMutability": "view",
      "type": "function"
    },
    {
      "inputs": [
        {
          "internalType": "uint256",
          "name": "tokenId",
          "type": "uint256"
        }
      ],
      "name": "getApproved",
      "outputs": [
        {
          "internalType": "address",
          "name": "",
          "type": "address"
        }
      ],
      "stateMutability": "view",
      "type": "function"
    },
    {
      "inputs": [
        {
          "internalType": "address",
          "name": "owner",
          "type": "address"
        },
        {
          "internalType": "address",
          "name": "operator",
          "type": "address"
        }
      ],
      "name": "isApprovedForAll",
      "outputs": [
        {
          "internalType": "bool",
          "name": "",
          "type": "bool"
        }
      ],
      "stateMutability": "view",
      "type": "function"
    },
    {
      "inputs": [],
      "name": "isRevealed",
      "outputs": [
        {
          "internalType": "bool",
          "name": "",
          "type": "bool"
        }
      ],
      "stateMutability": "view",
      "type": "function"
    },
    {
      "inputs": [],
      "name": "maxTokenPurchase",
      "outputs": [
        {
          "internalType": "uint256",
          "name": "",
          "type": "uint256"
        }
      ],
      "stateMutability": "view",
      "type": "function"
    },
    {
      "inputs": [
        {
          "internalType": "uint256",
          "name": "numberOfTokens",
          "type": "uint256"
        }
      ],
      "name": "mintEgg",
      "outputs": [],
      "stateMutability": "payable",
      "type": "function"
    },
    {
      "inputs": [],
      "name": "name",
      "outputs": [
        {
          "internalType": "string",
          "name": "",
          "type": "string"
        }
      ],
      "stateMutability": "view",
      "type": "function"
    },
    {
      "inputs": [
        {
          "internalType": "address",
          "name": "addr",
          "type": "address"
        }
      ],
      "name": "onPreSaleList",
      "outputs": [
        {
          "internalType": "bool",
          "name": "",
          "type": "bool"
        }
      ],
      "stateMutability": "view",
      "type": "function"
    },
    {
      "inputs": [],
      "name": "owner",
      "outputs": [
        {
          "internalType": "address",
          "name": "",
          "type": "address"
        }
      ],
      "stateMutability": "view",
      "type": "function"
    },
    {
      "inputs": [
        {
          "internalType": "uint256",
          "name": "tokenId",
          "type": "uint256"
        }
      ],
      "name": "ownerOf",
      "outputs": [
        {
          "internalType": "address",
          "name": "",
          "type": "address"
        }
      ],
      "stateMutability": "view",
      "type": "function"
    },
    {
      "inputs": [
        {
          "internalType": "uint256",
          "name": "numberOfTokens",
          "type": "uint256"
        }
      ],
      "name": "presaleEgg",
      "outputs": [],
      "stateMutability": "payable",
      "type": "function"
    },
    {
      "inputs": [],
      "name": "presaleIsActive",
      "outputs": [
        {
          "internalType": "bool",
          "name": "",
          "type": "bool"
        }
      ],
      "stateMutability": "view",
      "type": "function"
    },
    {
      "inputs": [],
      "name": "presaleMaxMint",
      "outputs": [
        {
          "internalType": "uint256",
          "name": "",
          "type": "uint256"
        }
      ],
      "stateMutability": "view",
      "type": "function"
    },
    {
      "inputs": [
        {
          "internalType": "address[]",
          "name": "addresses",
          "type": "address[]"
        }
      ],
      "name": "removeFromPresaleList",
      "outputs": [],
      "stateMutability": "nonpayable",
      "type": "function"
    },
    {
      "inputs": [],
      "name": "renounceOwnership",
      "outputs": [],
      "stateMutability": "nonpayable",
      "type": "function"
    },
    {
      "inputs": [
        {
          "internalType": "address",
          "name": "_to",
          "type": "address"
        },
        {
          "internalType": "uint256",
          "name": "_reserveAmount",
          "type": "uint256"
        }
      ],
      "name": "reserveTokens",
      "outputs": [],
      "stateMutability": "nonpayable",
      "type": "function"
    },
    {
      "inputs": [],
      "name": "reveal",
      "outputs": [],
      "stateMutability": "nonpayable",
      "type": "function"
    },
    {
      "inputs": [
        {
          "internalType": "address",
          "name": "from",
          "type": "address"
        },
        {
          "internalType": "address",
          "name": "to",
          "type": "address"
        },
        {
          "internalType": "uint256",
          "name": "tokenId",
          "type": "uint256"
        }
      ],
      "name": "safeTransferFrom",
      "outputs": [],
      "stateMutability": "nonpayable",
      "type": "function"
    },
    {
      "inputs": [
        {
          "internalType": "address",
          "name": "from",
          "type": "address"
        },
        {
          "internalType": "address",
          "name": "to",
          "type": "address"
        },
        {
          "internalType": "uint256",
          "name": "tokenId",
          "type": "uint256"
        },
        {
          "internalType": "bytes",
          "name": "_data",
          "type": "bytes"
        }
      ],
      "name": "safeTransferFrom",
      "outputs": [],
      "stateMutability": "nonpayable",
      "type": "function"
    },
    {
      "inputs": [],
      "name": "saleIsActive",
      "outputs": [
        {
          "internalType": "bool",
          "name": "",
          "type": "bool"
        }
      ],
      "stateMutability": "view",
      "type": "function"
    },
    {
      "inputs": [
        {
          "internalType": "address",
          "name": "operator",
          "type": "address"
        },
        {
          "internalType": "bool",
          "name": "approved",
          "type": "bool"
        }
      ],
      "name": "setApprovalForAll",
      "outputs": [],
      "stateMutability": "nonpayable",
      "type": "function"
    },
    {
      "inputs": [
        {
          "internalType": "string",
          "name": "_newBaseURI",
          "type": "string"
        }
      ],
      "name": "setBaseURI",
      "outputs": [],
      "stateMutability": "nonpayable",
      "type": "function"
    },
    {
      "inputs": [
        {
          "internalType": "uint256",
          "name": "maxMint",
          "type": "uint256"
        }
      ],
      "name": "setPresaleMaxMint",
      "outputs": [],
      "stateMutability": "nonpayable",
      "type": "function"
    },
    {
      "inputs": [
        {
          "internalType": "bytes4",
          "name": "interfaceId",
          "type": "bytes4"
        }
      ],
      "name": "supportsInterface",
      "outputs": [
        {
          "internalType": "bool",
          "name": "",
          "type": "bool"
        }
      ],
      "stateMutability": "view",
      "type": "function"
    },
    {
      "inputs": [],
      "name": "symbol",
      "outputs": [
        {
          "internalType": "string",
          "name": "",
          "type": "string"
        }
      ],
      "stateMutability": "view",
      "type": "function"
    },
    {
      "inputs": [],
      "name": "togglePresaleState",
      "outputs": [],
      "stateMutability": "nonpayable",
      "type": "function"
    },
    {
      "inputs": [],
      "name": "toggleSaleState",
      "outputs": [],
      "stateMutability": "nonpayable",
      "type": "function"
    },
    {
      "inputs": [
        {
          "internalType": "uint256",
          "name": "index",
          "type": "uint256"
        }
      ],
      "name": "tokenByIndex",
      "outputs": [
        {
          "internalType": "uint256",
          "name": "",
          "type": "uint256"
        }
      ],
      "stateMutability": "view",
      "type": "function"
    },
    {
      "inputs": [
        {
          "internalType": "address",
          "name": "owner",
          "type": "address"
        },
        {
          "internalType": "uint256",
          "name": "index",
          "type": "uint256"
        }
      ],
      "name": "tokenOfOwnerByIndex",
      "outputs": [
        {
          "internalType": "uint256",
          "name": "",
          "type": "uint256"
        }
      ],
      "stateMutability": "view",
      "type": "function"
    },
    {
      "inputs": [],
      "name": "tokenPrice",
      "outputs": [
        {
          "internalType": "uint256",
          "name": "",
          "type": "uint256"
        }
      ],
      "stateMutability": "view",
      "type": "function"
    },
    {
      "inputs": [
        {
          "internalType": "uint256",
          "name": "tokenId",
          "type": "uint256"
        }
      ],
      "name": "tokenURI",
      "outputs": [
        {
          "internalType": "string",
          "name": "",
          "type": "string"
        }
      ],
      "stateMutability": "view",
      "type": "function"
    },
    {
      "inputs": [
        {
          "internalType": "address",
          "name": "_owner",
          "type": "address"
        }
      ],
      "name": "tokensOfOwner",
      "outputs": [
        {
          "internalType": "uint256[]",
          "name": "",
          "type": "uint256[]"
        }
      ],
      "stateMutability": "view",
      "type": "function"
    },
    {
      "inputs": [],
      "name": "totalSupply",
      "outputs": [
        {
          "internalType": "uint256",
          "name": "",
          "type": "uint256"
        }
      ],
      "stateMutability": "view",
      "type": "function"
    },
    {
      "inputs": [
        {
          "internalType": "address",
          "name": "from",
          "type": "address"
        },
        {
          "internalType": "address",
          "name": "to",
          "type": "address"
        },
        {
          "internalType": "uint256",
          "name": "tokenId",
          "type": "uint256"
        }
      ],
      "name": "transferFrom",
      "outputs": [],
      "stateMutability": "nonpayable",
      "type": "function"
    },
    {
      "inputs": [
        {
          "internalType": "address",
          "name": "newOwner",
          "type": "address"
        }
      ],
      "name": "transferOwnership",
      "outputs": [],
      "stateMutability": "nonpayable",
      "type": "function"
    },
    {
      "inputs": [],
      "name": "withdraw",
      "outputs": [],
      "stateMutability": "nonpayable",
      "type": "function"
    }
  ],
  "bytecode": "0x608060405260405180602001604052806000815250600b90805190602001906200002b92919062000229565b506001600c60006101000a81548160ff0219169083151502179055506000600c60016101000a81548160ff0219169083151502179055506000600c60026101000a81548160ff0219169083151502179055506002600f5560406010553480156200009457600080fd5b506040518060400160405280600781526020017f4567675465616d000000000000000000000000000000000000000000000000008152506040518060400160405280600481526020017f454747540000000000000000000000000000000000000000000000000000000081525081600090805190602001906200011992919062000229565b5080600190805190602001906200013292919062000229565b50505062000155620001496200015b60201b60201c565b6200016360201b60201c565b6200033e565b600033905090565b6000600660009054906101000a900473ffffffffffffffffffffffffffffffffffffffff16905081600660006101000a81548173ffffffffffffffffffffffffffffffffffffffff021916908373ffffffffffffffffffffffffffffffffffffffff1602179055508173ffffffffffffffffffffffffffffffffffffffff168173ffffffffffffffffffffffffffffffffffffffff167f8be0079c531659141344cd1fd0a4f28419497f9722a3daafe3b4186f6b6457e060405160405180910390a35050565b8280546200023790620002d9565b90600052602060002090601f0160209004810192826200025b5760008555620002a7565b82601f106200027657805160ff1916838001178555620002a7565b82800160010185558215620002a7579182015b82811115620002a657825182559160200191906001019062000289565b5b509050620002b69190620002ba565b5090565b5b80821115620002d5576000816000905550600101620002bb565b5090565b60006002820490506001821680620002f257607f821691505b602082108114156200030957620003086200030f565b5b50919050565b7f4e487b7100000000000000000000000000000000000000000000000000000000600052602260045260246000fd5b615408806200034e6000396000f3fe6080604052600436106102465760003560e01c806378cf19e911610139578063b179e060116100b6578063e985e9c51161007a578063e985e9c51461084c578063eb8d244414610889578063f285e69e146108b4578063f2fde38b146108cb578063f47c84c5146108f4578063fcd2a4271461091f57610246565b8063b179e0601461077d578063b88d4fde146107a6578063c87b56dd146107cf578063daaeec861461080c578063df4305d21461082357610246565b8063946ef42a116100fd578063946ef42a146106cb57806395d89b41146106f6578063a22cb46514610721578063a475b5dd1461074a578063a9e7c8571461076157610246565b806378cf19e9146105f35780637ff9b5961461061c5780638422691e146106475780638462151c146106635780638da5cb5b146106a057610246565b80633ccfd60b116101c75780636352211e1161018b5780636352211e1461050e5780636c0360eb1461054b57806370a0823114610576578063715018a6146105b35780637204a3c9146105ca57610246565b80633ccfd60b1461043d57806342842e0e146104545780634f6ccce71461047d57806354214f69146104ba57806355f804b3146104e557610246565b806311576b791161020e57806311576b791461034457806318160ddd1461038157806323b872dd146103ac5780632f745c59146103d557806330f72cd41461041257610246565b806301ffc9a71461024b57806306fdde0314610288578063081812fc146102b3578063095ea7b3146102f057806309aa3dcf14610319575b600080fd5b34801561025757600080fd5b50610272600480360381019061026d9190613bf9565b61094a565b60405161027f9190614314565b60405180910390f35b34801561029457600080fd5b5061029d61095c565b6040516102aa919061432f565b60405180910390f35b3480156102bf57600080fd5b506102da60048036038101906102d59190613c8c565b6109ee565b6040516102e7919061428b565b60405180910390f35b3480156102fc57600080fd5b5061031760048036038101906103129190613b78565b610a73565b005b34801561032557600080fd5b5061032e610b8b565b60405161033b91906146f1565b60405180910390f35b34801561035057600080fd5b5061036b60048036038101906103669190613a0d565b610b90565b6040516103789190614314565b60405180910390f35b34801561038d57600080fd5b50610396610be6565b6040516103a391906146f1565b60405180910390f35b3480156103b857600080fd5b506103d360048036038101906103ce9190613a72565b610bf3565b005b3480156103e157600080fd5b506103fc60048036038101906103f79190613b78565b610c53565b60405161040991906146f1565b60405180910390f35b34801561041e57600080fd5b50610427610cf8565b6040516104349190614314565b60405180910390f35b34801561044957600080fd5b50610452610d0b565b005b34801561046057600080fd5b5061047b60048036038101906104769190613a72565b610e07565b005b34801561048957600080fd5b506104a4600480360381019061049f9190613c8c565b610e27565b6040516104b191906146f1565b60405180910390f35b3480156104c657600080fd5b506104cf610ebe565b6040516104dc9190614314565b60405180910390f35b3480156104f157600080fd5b5061050c60048036038101906105079190613c4b565b610ed1565b005b34801561051a57600080fd5b5061053560048036038101906105309190613c8c565b610f67565b604051610542919061428b565b60405180910390f35b34801561055757600080fd5b50610560611019565b60405161056d919061432f565b60405180910390f35b34801561058257600080fd5b5061059d60048036038101906105989190613a0d565b6110a7565b6040516105aa91906146f1565b60405180910390f35b3480156105bf57600080fd5b506105c861115f565b005b3480156105d657600080fd5b506105f160048036038101906105ec9190613bb4565b6111e7565b005b3480156105ff57600080fd5b5061061a60048036038101906106159190613b78565b6113eb565b005b34801561062857600080fd5b5061063161150d565b60405161063e91906146f1565b60405180910390f35b610661600480360381019061065c9190613c8c565b611518565b005b34801561066f57600080fd5b5061068a60048036038101906106859190613a0d565b6116f5565b60405161069791906142f2565b60405180910390f35b3480156106ac57600080fd5b506106b5611871565b6040516106c2919061428b565b60405180910390f35b3480156106d757600080fd5b506106e061189b565b6040516106ed91906146f1565b60405180910390f35b34801561070257600080fd5b5061070b6118a1565b604051610718919061432f565b60405180910390f35b34801561072d57600080fd5b5061074860048036038101906107439190613b3c565b611933565b005b34801561075657600080fd5b5061075f611949565b005b61077b60048036038101906107769190613c8c565b6119e2565b005b34801561078957600080fd5b506107a4600480360381019061079f9190613bb4565b611d4c565b005b3480156107b257600080fd5b506107cd60048036038101906107c89190613ac1565b611f50565b005b3480156107db57600080fd5b506107f660048036038101906107f19190613c8c565b611fb2565b604051610803919061432f565b60405180910390f35b34801561081857600080fd5b50610821612097565b005b34801561082f57600080fd5b5061084a60048036038101906108459190613c8c565b61213f565b005b34801561085857600080fd5b50610873600480360381019061086e9190613a36565b6121c5565b6040516108809190614314565b60405180910390f35b34801561089557600080fd5b5061089e612259565b6040516108ab9190614314565b60405180910390f35b3480156108c057600080fd5b506108c961226c565b005b3480156108d757600080fd5b506108f260048036038101906108ed9190613a0d565b612314565b005b34801561090057600080fd5b5061090961240c565b60405161091691906146f1565b60405180910390f35b34801561092b57600080fd5b50610934612412565b60405161094191906146f1565b60405180910390f35b600061095582612418565b9050919050565b60606000805461096b90614a0e565b80601f016020809104026020016040519081016040528092919081815260200182805461099790614a0e565b80156109e45780601f106109b9576101008083540402835291602001916109e4565b820191906000526020600020905b8154815290600101906020018083116109c757829003601f168201915b5050505050905090565b60006109f982612492565b610a38576040517f08c379a0000000000000000000000000000000000000000000000000000000008152600401610a2f90614591565b60405180910390fd5b6004600083815260200190815260200160002060009054906101000a900473ffffffffffffffffffffffffffffffffffffffff169050919050565b6000610a7e82610f67565b90508073ffffffffffffffffffffffffffffffffffffffff168373ffffffffffffffffffffffffffffffffffffffff161415610aef576040517f08c379a0000000000000000000000000000000000000000000000000000000008152600401610ae690614631565b60405180910390fd5b8073ffffffffffffffffffffffffffffffffffffffff16610b0e6124fe565b73ffffffffffffffffffffffffffffffffffffffff161480610b3d5750610b3c81610b376124fe565b6121c5565b5b610b7c576040517f08c379a0000000000000000000000000000000000000000000000000000000008152600401610b73906144f1565b60405180910390fd5b610b868383612506565b505050565b600581565b6000600d60008373ffffffffffffffffffffffffffffffffffffffff1673ffffffffffffffffffffffffffffffffffffffff16815260200190815260200160002060009054906101000a900460ff169050919050565b6000600980549050905090565b610c04610bfe6124fe565b826125bf565b610c43576040517f08c379a0000000000000000000000000000000000000000000000000000000008152600401610c3a90614651565b60405180910390fd5b610c4e83838361269d565b505050565b6000610c5e836110a7565b8210610c9f576040517f08c379a0000000000000000000000000000000000000000000000000000000008152600401610c9690614391565b60405180910390fd5b600760008473ffffffffffffffffffffffffffffffffffffffff1673ffffffffffffffffffffffffffffffffffffffff168152602001908152602001600020600083815260200190815260200160002054905092915050565b600c60019054906101000a900460ff1681565b610d136124fe565b73ffffffffffffffffffffffffffffffffffffffff16610d31611871565b73ffffffffffffffffffffffffffffffffffffffff1614610d87576040517f08c379a0000000000000000000000000000000000000000000000000000000008152600401610d7e906145b1565b60405180910390fd5b6000610d91611871565b73ffffffffffffffffffffffffffffffffffffffff1647604051610db490614276565b60006040518083038185875af1925050503d8060008114610df1576040519150601f19603f3d011682016040523d82523d6000602084013e610df6565b606091505b5050905080610e0457600080fd5b50565b610e2283838360405180602001604052806000815250611f50565b505050565b6000610e31610be6565b8210610e72576040517f08c379a0000000000000000000000000000000000000000000000000000000008152600401610e6990614671565b60405180910390fd5b60098281548110610eac577f4e487b7100000000000000000000000000000000000000000000000000000000600052603260045260246000fd5b90600052602060002001549050919050565b600c60029054906101000a900460ff1681565b610ed96124fe565b73ffffffffffffffffffffffffffffffffffffffff16610ef7611871565b73ffffffffffffffffffffffffffffffffffffffff1614610f4d576040517f08c379a0000000000000000000000000000000000000000000000000000000008152600401610f44906145b1565b60405180910390fd5b80600b9080519060200190610f639291906137e7565b5050565b6000806002600084815260200190815260200160002060009054906101000a900473ffffffffffffffffffffffffffffffffffffffff169050600073ffffffffffffffffffffffffffffffffffffffff168173ffffffffffffffffffffffffffffffffffffffff161415611010576040517f08c379a000000000000000000000000000000000000000000000000000000000815260040161100790614531565b60405180910390fd5b80915050919050565b600b805461102690614a0e565b80601f016020809104026020016040519081016040528092919081815260200182805461105290614a0e565b801561109f5780601f106110745761010080835404028352916020019161109f565b820191906000526020600020905b81548152906001019060200180831161108257829003601f168201915b505050505081565b60008073ffffffffffffffffffffffffffffffffffffffff168273ffffffffffffffffffffffffffffffffffffffff161415611118576040517f08c379a000000000000000000000000000000000000000000000000000000000815260040161110f90614511565b60405180910390fd5b600360008373ffffffffffffffffffffffffffffffffffffffff1673ffffffffffffffffffffffffffffffffffffffff168152602001908152602001600020549050919050565b6111676124fe565b73ffffffffffffffffffffffffffffffffffffffff16611185611871565b73ffffffffffffffffffffffffffffffffffffffff16146111db576040517f08c379a00000000000000000000000000000000000000000000000000000000081526004016111d2906145b1565b60405180910390fd5b6111e560006128f9565b565b6111ef6124fe565b73ffffffffffffffffffffffffffffffffffffffff1661120d611871565b73ffffffffffffffffffffffffffffffffffffffff1614611263576040517f08c379a000000000000000000000000000000000000000000000000000000000815260040161125a906145b1565b60405180910390fd5b60005b828290508110156113e657600073ffffffffffffffffffffffffffffffffffffffff168383838181106112c2577f4e487b7100000000000000000000000000000000000000000000000000000000600052603260045260246000fd5b90506020020160208101906112d79190613a0d565b73ffffffffffffffffffffffffffffffffffffffff16141561132e576040517f08c379a0000000000000000000000000000000000000000000000000000000008152600401611325906145d1565b60405180910390fd5b6001600d600085858581811061136d577f4e487b7100000000000000000000000000000000000000000000000000000000600052603260045260246000fd5b90506020020160208101906113829190613a0d565b73ffffffffffffffffffffffffffffffffffffffff1673ffffffffffffffffffffffffffffffffffffffff16815260200190815260200160002060006101000a81548160ff02191690831515021790555080806113de90614a71565b915050611266565b505050565b6113f36124fe565b73ffffffffffffffffffffffffffffffffffffffff16611411611871565b73ffffffffffffffffffffffffffffffffffffffff1614611467576040517f08c379a000000000000000000000000000000000000000000000000000000000815260040161145e906145b1565b60405180910390fd5b60008111801561147957506010548111155b6114b8576040517f08c379a00000000000000000000000000000000000000000000000000000000081526004016114af90614451565b60405180910390fd5b60005b818110156114ed5760006114cd610be6565b90506114d984826129bf565b5080806114e590614a71565b9150506114bb565b50611503816010546129dd90919063ffffffff16565b6010819055505050565b662386f26fc1000081565b600c60009054906101000a900460ff16611567576040517f08c379a000000000000000000000000000000000000000000000000000000000815260040161155e90614431565b60405180910390fd5b600081118015611578575060058111155b6115b7576040517f08c379a00000000000000000000000000000000000000000000000000000000081526004016115ae90614351565b60405180910390fd5b6103e86115d4826115c6610be6565b6129f390919063ffffffff16565b1115611615576040517f08c379a000000000000000000000000000000000000000000000000000000000815260040161160c90614551565b60405180910390fd5b61162f81662386f26fc10000612a0990919063ffffffff16565b341015611671576040517f08c379a0000000000000000000000000000000000000000000000000000000008152600401611668906144b1565b60405180910390fd5b60005b818110156116f1576000611686610be6565b90506103e8611693610be6565b10156116dd576116a333826129bf565b7f3f30939db62a9977a0d3dd0a8776309093ded9da114c6095d1d189bcb43854dd81336040516116d492919061470c565b60405180910390a15b5080806116e990614a71565b915050611674565b5050565b60606000611702836110a7565b9050600081141561178557600067ffffffffffffffff81111561174e577f4e487b7100000000000000000000000000000000000000000000000000000000600052604160045260246000fd5b60405190808252806020026020018201604052801561177c5781602001602082028036833780820191505090505b5091505061186c565b60008167ffffffffffffffff8111156117c7577f4e487b7100000000000000000000000000000000000000000000000000000000600052604160045260246000fd5b6040519080825280602002602001820160405280156117f55781602001602082028036833780820191505090505b50905060005b828110156118655761180d8582610c53565b828281518110611846577f4e487b7100000000000000000000000000000000000000000000000000000000600052603260045260246000fd5b602002602001018181525050808061185d90614a71565b9150506117fb565b8193505050505b919050565b6000600660009054906101000a900473ffffffffffffffffffffffffffffffffffffffff16905090565b600f5481565b6060600180546118b090614a0e565b80601f01602080910402602001604051908101604052809291908181526020018280546118dc90614a0e565b80156119295780601f106118fe57610100808354040283529160200191611929565b820191906000526020600020905b81548152906001019060200180831161190c57829003601f168201915b5050505050905090565b61194561193e6124fe565b8383612a1f565b5050565b6119516124fe565b73ffffffffffffffffffffffffffffffffffffffff1661196f611871565b73ffffffffffffffffffffffffffffffffffffffff16146119c5576040517f08c379a00000000000000000000000000000000000000000000000000000000081526004016119bc906145b1565b60405180910390fd5b6001600c60026101000a81548160ff021916908315150217905550565b600c60019054906101000a900460ff16611a31576040517f08c379a0000000000000000000000000000000000000000000000000000000008152600401611a2890614691565b60405180910390fd5b600d60003373ffffffffffffffffffffffffffffffffffffffff1673ffffffffffffffffffffffffffffffffffffffff16815260200190815260200160002060009054906101000a900460ff16611abd576040517f08c379a0000000000000000000000000000000000000000000000000000000008152600401611ab490614411565b60405180910390fd5b6103e8611ada82611acc610be6565b6129f390919063ffffffff16565b1115611b1b576040517f08c379a0000000000000000000000000000000000000000000000000000000008152600401611b12906145f1565b60405180910390fd5b600081118015611b2d5750600f548111155b611b6c576040517f08c379a0000000000000000000000000000000000000000000000000000000008152600401611b63906146d1565b60405180910390fd5b600f54611bc182600e60003373ffffffffffffffffffffffffffffffffffffffff1673ffffffffffffffffffffffffffffffffffffffff168152602001908152602001600020546129f390919063ffffffff16565b1115611c02576040517f08c379a0000000000000000000000000000000000000000000000000000000008152600401611bf9906146b1565b60405180910390fd5b611c1c81662386f26fc10000612a0990919063ffffffff16565b341015611c5e576040517f08c379a0000000000000000000000000000000000000000000000000000000008152600401611c55906144b1565b60405180910390fd5b60005b81811015611d48576000611c866001611c78610be6565b6129f390919063ffffffff16565b90506103e8611c93610be6565b1015611d34576001600e60003373ffffffffffffffffffffffffffffffffffffffff1673ffffffffffffffffffffffffffffffffffffffff1681526020019081526020016000206000828254611ce99190614843565b92505081905550611cfa33826129bf565b7f3f30939db62a9977a0d3dd0a8776309093ded9da114c6095d1d189bcb43854dd8133604051611d2b92919061470c565b60405180910390a15b508080611d4090614a71565b915050611c61565b5050565b611d546124fe565b73ffffffffffffffffffffffffffffffffffffffff16611d72611871565b73ffffffffffffffffffffffffffffffffffffffff1614611dc8576040517f08c379a0000000000000000000000000000000000000000000000000000000008152600401611dbf906145b1565b60405180910390fd5b60005b82829050811015611f4b57600073ffffffffffffffffffffffffffffffffffffffff16838383818110611e27577f4e487b7100000000000000000000000000000000000000000000000000000000600052603260045260246000fd5b9050602002016020810190611e3c9190613a0d565b73ffffffffffffffffffffffffffffffffffffffff161415611e93576040517f08c379a0000000000000000000000000000000000000000000000000000000008152600401611e8a906145d1565b60405180910390fd5b6000600d6000858585818110611ed2577f4e487b7100000000000000000000000000000000000000000000000000000000600052603260045260246000fd5b9050602002016020810190611ee79190613a0d565b73ffffffffffffffffffffffffffffffffffffffff1673ffffffffffffffffffffffffffffffffffffffff16815260200190815260200160002060006101000a81548160ff0219169083151502179055508080611f4390614a71565b915050611dcb565b505050565b611f61611f5b6124fe565b836125bf565b611fa0576040517f08c379a0000000000000000000000000000000000000000000000000000000008152600401611f9790614651565b60405180910390fd5b611fac84848484612b8c565b50505050565b6060611fbd82612492565b611ffc576040517f08c379a0000000000000000000000000000000000000000000000000000000008152600401611ff390614371565b60405180910390fd5b6000612006612be8565b905060001515600c60029054906101000a900460ff16151514156120455760405180608001604052806041815260200161539260419139915050612092565b6000815111612063576040518060200160405280600081525061208e565b8061206d84612c7a565b60405160200161207e929190614247565b6040516020818303038152906040525b9150505b919050565b61209f6124fe565b73ffffffffffffffffffffffffffffffffffffffff166120bd611871565b73ffffffffffffffffffffffffffffffffffffffff1614612113576040517f08c379a000000000000000000000000000000000000000000000000000000000815260040161210a906145b1565b60405180910390fd5b600c60009054906101000a900460ff1615600c60006101000a81548160ff021916908315150217905550565b6121476124fe565b73ffffffffffffffffffffffffffffffffffffffff16612165611871565b73ffffffffffffffffffffffffffffffffffffffff16146121bb576040517f08c379a00000000000000000000000000000000000000000000000000000000081526004016121b2906145b1565b60405180910390fd5b80600f8190555050565b6000600560008473ffffffffffffffffffffffffffffffffffffffff1673ffffffffffffffffffffffffffffffffffffffff16815260200190815260200160002060008373ffffffffffffffffffffffffffffffffffffffff1673ffffffffffffffffffffffffffffffffffffffff16815260200190815260200160002060009054906101000a900460ff16905092915050565b600c60009054906101000a900460ff1681565b6122746124fe565b73ffffffffffffffffffffffffffffffffffffffff16612292611871565b73ffffffffffffffffffffffffffffffffffffffff16146122e8576040517f08c379a00000000000000000000000000000000000000000000000000000000081526004016122df906145b1565b60405180910390fd5b600c60019054906101000a900460ff1615600c60016101000a81548160ff021916908315150217905550565b61231c6124fe565b73ffffffffffffffffffffffffffffffffffffffff1661233a611871565b73ffffffffffffffffffffffffffffffffffffffff1614612390576040517f08c379a0000000000000000000000000000000000000000000000000000000008152600401612387906145b1565b60405180910390fd5b600073ffffffffffffffffffffffffffffffffffffffff168173ffffffffffffffffffffffffffffffffffffffff161415612400576040517f08c379a00000000000000000000000000000000000000000000000000000000081526004016123f7906143d1565b60405180910390fd5b612409816128f9565b50565b6103e881565b60105481565b60007f780e9d63000000000000000000000000000000000000000000000000000000007bffffffffffffffffffffffffffffffffffffffffffffffffffffffff1916827bffffffffffffffffffffffffffffffffffffffffffffffffffffffff1916148061248b575061248a82612e27565b5b9050919050565b60008073ffffffffffffffffffffffffffffffffffffffff166002600084815260200190815260200160002060009054906101000a900473ffffffffffffffffffffffffffffffffffffffff1673ffffffffffffffffffffffffffffffffffffffff1614159050919050565b600033905090565b816004600083815260200190815260200160002060006101000a81548173ffffffffffffffffffffffffffffffffffffffff021916908373ffffffffffffffffffffffffffffffffffffffff160217905550808273ffffffffffffffffffffffffffffffffffffffff1661257983610f67565b73ffffffffffffffffffffffffffffffffffffffff167f8c5be1e5ebec7d5bd14f71427d1e84f3dd0314c0f7b2291e5b200ac8c7c3b92560405160405180910390a45050565b60006125ca82612492565b612609576040517f08c379a0000000000000000000000000000000000000000000000000000000008152600401612600906144d1565b60405180910390fd5b600061261483610f67565b90508073ffffffffffffffffffffffffffffffffffffffff168473ffffffffffffffffffffffffffffffffffffffff16148061268357508373ffffffffffffffffffffffffffffffffffffffff1661266b846109ee565b73ffffffffffffffffffffffffffffffffffffffff16145b80612694575061269381856121c5565b5b91505092915050565b8273ffffffffffffffffffffffffffffffffffffffff166126bd82610f67565b73ffffffffffffffffffffffffffffffffffffffff1614612713576040517f08c379a000000000000000000000000000000000000000000000000000000000815260040161270a90614611565b60405180910390fd5b600073ffffffffffffffffffffffffffffffffffffffff168273ffffffffffffffffffffffffffffffffffffffff161415612783576040517f08c379a000000000000000000000000000000000000000000000000000000000815260040161277a90614471565b60405180910390fd5b61278e838383612f09565b612799600082612506565b6001600360008573ffffffffffffffffffffffffffffffffffffffff1673ffffffffffffffffffffffffffffffffffffffff16815260200190815260200160002060008282546127e99190614924565b925050819055506001600360008473ffffffffffffffffffffffffffffffffffffffff1673ffffffffffffffffffffffffffffffffffffffff16815260200190815260200160002060008282546128409190614843565b92505081905550816002600083815260200190815260200160002060006101000a81548173ffffffffffffffffffffffffffffffffffffffff021916908373ffffffffffffffffffffffffffffffffffffffff160217905550808273ffffffffffffffffffffffffffffffffffffffff168473ffffffffffffffffffffffffffffffffffffffff167fddf252ad1be2c89b69c2b068fc378daa952ba7f163c4a11628f55a4df523b3ef60405160405180910390a4505050565b6000600660009054906101000a900473ffffffffffffffffffffffffffffffffffffffff16905081600660006101000a81548173ffffffffffffffffffffffffffffffffffffffff021916908373ffffffffffffffffffffffffffffffffffffffff1602179055508173ffffffffffffffffffffffffffffffffffffffff168173ffffffffffffffffffffffffffffffffffffffff167f8be0079c531659141344cd1fd0a4f28419497f9722a3daafe3b4186f6b6457e060405160405180910390a35050565b6129d9828260405180602001604052806000815250612f19565b5050565b600081836129eb9190614924565b905092915050565b60008183612a019190614843565b905092915050565b60008183612a1791906148ca565b905092915050565b8173ffffffffffffffffffffffffffffffffffffffff168373ffffffffffffffffffffffffffffffffffffffff161415612a8e576040517f08c379a0000000000000000000000000000000000000000000000000000000008152600401612a8590614491565b60405180910390fd5b80600560008573ffffffffffffffffffffffffffffffffffffffff1673ffffffffffffffffffffffffffffffffffffffff16815260200190815260200160002060008473ffffffffffffffffffffffffffffffffffffffff1673ffffffffffffffffffffffffffffffffffffffff16815260200190815260200160002060006101000a81548160ff0219169083151502179055508173ffffffffffffffffffffffffffffffffffffffff168373ffffffffffffffffffffffffffffffffffffffff167f17307eab39ab6107e8899845ad3d59bd9653f200f220920489ca2b5937696c3183604051612b7f9190614314565b60405180910390a3505050565b612b9784848461269d565b612ba384848484612f74565b612be2576040517f08c379a0000000000000000000000000000000000000000000000000000000008152600401612bd9906143b1565b60405180910390fd5b50505050565b6060600b8054612bf790614a0e565b80601f0160208091040260200160405190810160405280929190818152602001828054612c2390614a0e565b8015612c705780601f10612c4557610100808354040283529160200191612c70565b820191906000526020600020905b815481529060010190602001808311612c5357829003601f168201915b5050505050905090565b60606000821415612cc2576040518060400160405280600181526020017f30000000000000000000000000000000000000000000000000000000000000008152509050612e22565b600082905060005b60008214612cf4578080612cdd90614a71565b915050600a82612ced9190614899565b9150612cca565b60008167ffffffffffffffff811115612d36577f4e487b7100000000000000000000000000000000000000000000000000000000600052604160045260246000fd5b6040519080825280601f01601f191660200182016040528015612d685781602001600182028036833780820191505090505b5090505b60008514612e1b57600182612d819190614924565b9150600a85612d909190614aba565b6030612d9c9190614843565b60f81b818381518110612dd8577f4e487b7100000000000000000000000000000000000000000000000000000000600052603260045260246000fd5b60200101907effffffffffffffffffffffffffffffffffffffffffffffffffffffffffffff1916908160001a905350600a85612e149190614899565b9450612d6c565b8093505050505b919050565b60007f80ac58cd000000000000000000000000000000000000000000000000000000007bffffffffffffffffffffffffffffffffffffffffffffffffffffffff1916827bffffffffffffffffffffffffffffffffffffffffffffffffffffffff19161480612ef257507f5b5e139f000000000000000000000000000000000000000000000000000000007bffffffffffffffffffffffffffffffffffffffffffffffffffffffff1916827bffffffffffffffffffffffffffffffffffffffffffffffffffffffff1916145b80612f025750612f018261310b565b5b9050919050565b612f14838383613175565b505050565b612f238383613289565b612f306000848484612f74565b612f6f576040517f08c379a0000000000000000000000000000000000000000000000000000000008152600401612f66906143b1565b60405180910390fd5b505050565b6000612f958473ffffffffffffffffffffffffffffffffffffffff16613457565b156130fe578373ffffffffffffffffffffffffffffffffffffffff1663150b7a02612fbe6124fe565b8786866040518563ffffffff1660e01b8152600401612fe094939291906142a6565b602060405180830381600087803b158015612ffa57600080fd5b505af192505050801561302b57506040513d601f19601f820116820180604052508101906130289190613c22565b60015b6130ae573d806000811461305b576040519150601f19603f3d011682016040523d82523d6000602084013e613060565b606091505b506000815114156130a6576040517f08c379a000000000000000000000000000000000000000000000000000000000815260040161309d906143b1565b60405180910390fd5b805181602001fd5b63150b7a0260e01b7bffffffffffffffffffffffffffffffffffffffffffffffffffffffff1916817bffffffffffffffffffffffffffffffffffffffffffffffffffffffff191614915050613103565b600190505b949350505050565b60007f01ffc9a7000000000000000000000000000000000000000000000000000000007bffffffffffffffffffffffffffffffffffffffffffffffffffffffff1916827bffffffffffffffffffffffffffffffffffffffffffffffffffffffff1916149050919050565b61318083838361346a565b600073ffffffffffffffffffffffffffffffffffffffff168373ffffffffffffffffffffffffffffffffffffffff1614156131c3576131be8161346f565b613202565b8173ffffffffffffffffffffffffffffffffffffffff168373ffffffffffffffffffffffffffffffffffffffff16146132015761320083826134b8565b5b5b600073ffffffffffffffffffffffffffffffffffffffff168273ffffffffffffffffffffffffffffffffffffffff1614156132455761324081613625565b613284565b8273ffffffffffffffffffffffffffffffffffffffff168273ffffffffffffffffffffffffffffffffffffffff1614613283576132828282613768565b5b5b505050565b600073ffffffffffffffffffffffffffffffffffffffff168273ffffffffffffffffffffffffffffffffffffffff1614156132f9576040517f08c379a00000000000000000000000000000000000000000000000000000000081526004016132f090614571565b60405180910390fd5b61330281612492565b15613342576040517f08c379a0000000000000000000000000000000000000000000000000000000008152600401613339906143f1565b60405180910390fd5b61334e60008383612f09565b6001600360008473ffffffffffffffffffffffffffffffffffffffff1673ffffffffffffffffffffffffffffffffffffffff168152602001908152602001600020600082825461339e9190614843565b92505081905550816002600083815260200190815260200160002060006101000a81548173ffffffffffffffffffffffffffffffffffffffff021916908373ffffffffffffffffffffffffffffffffffffffff160217905550808273ffffffffffffffffffffffffffffffffffffffff16600073ffffffffffffffffffffffffffffffffffffffff167fddf252ad1be2c89b69c2b068fc378daa952ba7f163c4a11628f55a4df523b3ef60405160405180910390a45050565b600080823b905060008111915050919050565b505050565b600980549050600a600083815260200190815260200160002081905550600981908060018154018082558091505060019003906000526020600020016000909190919091505550565b600060016134c5846110a7565b6134cf9190614924565b90506000600860008481526020019081526020016000205490508181146135b4576000600760008673ffffffffffffffffffffffffffffffffffffffff1673ffffffffffffffffffffffffffffffffffffffff168152602001908152602001600020600084815260200190815260200160002054905080600760008773ffffffffffffffffffffffffffffffffffffffff1673ffffffffffffffffffffffffffffffffffffffff168152602001908152602001600020600084815260200190815260200160002081905550816008600083815260200190815260200160002081905550505b6008600084815260200190815260200160002060009055600760008573ffffffffffffffffffffffffffffffffffffffff1673ffffffffffffffffffffffffffffffffffffffff16815260200190815260200160002060008381526020019081526020016000206000905550505050565b600060016009805490506136399190614924565b90506000600a600084815260200190815260200160002054905060006009838154811061368f577f4e487b7100000000000000000000000000000000000000000000000000000000600052603260045260246000fd5b9060005260206000200154905080600983815481106136d7577f4e487b7100000000000000000000000000000000000000000000000000000000600052603260045260246000fd5b906000526020600020018190555081600a600083815260200190815260200160002081905550600a600085815260200190815260200160002060009055600980548061374c577f4e487b7100000000000000000000000000000000000000000000000000000000600052603160045260246000fd5b6001900381819060005260206000200160009055905550505050565b6000613773836110a7565b905081600760008573ffffffffffffffffffffffffffffffffffffffff1673ffffffffffffffffffffffffffffffffffffffff168152602001908152602001600020600083815260200190815260200160002081905550806008600084815260200190815260200160002081905550505050565b8280546137f390614a0e565b90600052602060002090601f016020900481019282613815576000855561385c565b82601f1061382e57805160ff191683800117855561385c565b8280016001018555821561385c579182015b8281111561385b578251825591602001919060010190613840565b5b509050613869919061386d565b5090565b5b8082111561388657600081600090555060010161386e565b5090565b600061389d6138988461475a565b614735565b9050828152602081018484840111156138b557600080fd5b6138c08482856149cc565b509392505050565b60006138db6138d68461478b565b614735565b9050828152602081018484840111156138f357600080fd5b6138fe8482856149cc565b509392505050565b60008135905061391581615335565b92915050565b60008083601f84011261392d57600080fd5b8235905067ffffffffffffffff81111561394657600080fd5b60208301915083602082028301111561395e57600080fd5b9250929050565b6000813590506139748161534c565b92915050565b60008135905061398981615363565b92915050565b60008151905061399e81615363565b92915050565b600082601f8301126139b557600080fd5b81356139c584826020860161388a565b91505092915050565b600082601f8301126139df57600080fd5b81356139ef8482602086016138c8565b91505092915050565b600081359050613a078161537a565b92915050565b600060208284031215613a1f57600080fd5b6000613a2d84828501613906565b91505092915050565b60008060408385031215613a4957600080fd5b6000613a5785828601613906565b9250506020613a6885828601613906565b9150509250929050565b600080600060608486031215613a8757600080fd5b6000613a9586828701613906565b9350506020613aa686828701613906565b9250506040613ab7868287016139f8565b9150509250925092565b60008060008060808587031215613ad757600080fd5b6000613ae587828801613906565b9450506020613af687828801613906565b9350506040613b07878288016139f8565b925050606085013567ffffffffffffffff811115613b2457600080fd5b613b30878288016139a4565b91505092959194509250565b60008060408385031215613b4f57600080fd5b6000613b5d85828601613906565b9250506020613b6e85828601613965565b9150509250929050565b60008060408385031215613b8b57600080fd5b6000613b9985828601613906565b9250506020613baa858286016139f8565b9150509250929050565b60008060208385031215613bc757600080fd5b600083013567ffffffffffffffff811115613be157600080fd5b613bed8582860161391b565b92509250509250929050565b600060208284031215613c0b57600080fd5b6000613c198482850161397a565b91505092915050565b600060208284031215613c3457600080fd5b6000613c428482850161398f565b91505092915050565b600060208284031215613c5d57600080fd5b600082013567ffffffffffffffff811115613c7757600080fd5b613c83848285016139ce565b91505092915050565b600060208284031215613c9e57600080fd5b6000613cac848285016139f8565b91505092915050565b6000613cc18383614229565b60208301905092915050565b613cd681614958565b82525050565b6000613ce7826147cc565b613cf181856147fa565b9350613cfc836147bc565b8060005b83811015613d2d578151613d148882613cb5565b9750613d1f836147ed565b925050600181019050613d00565b5085935050505092915050565b613d438161496a565b82525050565b6000613d54826147d7565b613d5e818561480b565b9350613d6e8185602086016149db565b613d7781614ba7565b840191505092915050565b6000613d8d826147e2565b613d978185614827565b9350613da78185602086016149db565b613db081614ba7565b840191505092915050565b6000613dc6826147e2565b613dd08185614838565b9350613de08185602086016149db565b80840191505092915050565b6000613df9602a83614827565b9150613e0482614bb8565b604082019050919050565b6000613e1c602e83614827565b9150613e2782614c07565b604082019050919050565b6000613e3f602b83614827565b9150613e4a82614c56565b604082019050919050565b6000613e62603283614827565b9150613e6d82614ca5565b604082019050919050565b6000613e85602683614827565b9150613e9082614cf4565b604082019050919050565b6000613ea8601c83614827565b9150613eb382614d43565b602082019050919050565b6000613ecb601f83614827565b9150613ed682614d6c565b602082019050919050565b6000613eee602183614827565b9150613ef982614d95565b604082019050919050565b6000613f11602083614827565b9150613f1c82614de4565b602082019050919050565b6000613f34602483614827565b9150613f3f82614e0d565b604082019050919050565b6000613f57601983614827565b9150613f6282614e5c565b602082019050919050565b6000613f7a601f83614827565b9150613f8582614e85565b602082019050919050565b6000613f9d602c83614827565b9150613fa882614eae565b604082019050919050565b6000613fc0603883614827565b9150613fcb82614efd565b604082019050919050565b6000613fe3602a83614827565b9150613fee82614f4c565b604082019050919050565b6000614006602983614827565b915061401182614f9b565b604082019050919050565b6000614029602a83614827565b915061403482614fea565b604082019050919050565b600061404c602083614827565b915061405782615039565b602082019050919050565b600061406f602c83614827565b915061407a82615062565b604082019050919050565b6000614092600583614838565b915061409d826150b1565b600582019050919050565b60006140b5602083614827565b91506140c0826150da565b602082019050919050565b60006140d8601a83614827565b91506140e382615103565b602082019050919050565b60006140fb602983614827565b91506141068261512c565b604082019050919050565b600061411e602983614827565b91506141298261517b565b604082019050919050565b6000614141602183614827565b915061414c826151ca565b604082019050919050565b600061416460008361481c565b915061416f82615219565b600082019050919050565b6000614187603183614827565b91506141928261521c565b604082019050919050565b60006141aa602c83614827565b91506141b58261526b565b604082019050919050565b60006141cd601583614827565b91506141d8826152ba565b602082019050919050565b60006141f0601c83614827565b91506141fb826152e3565b602082019050919050565b6000614213602083614827565b915061421e8261530c565b602082019050919050565b614232816149c2565b82525050565b614241816149c2565b82525050565b60006142538285613dbb565b915061425f8284613dbb565b915061426a82614085565b91508190509392505050565b600061428182614157565b9150819050919050565b60006020820190506142a06000830184613ccd565b92915050565b60006080820190506142bb6000830187613ccd565b6142c86020830186613ccd565b6142d56040830185614238565b81810360608301526142e78184613d49565b905095945050505050565b6000602082019050818103600083015261430c8184613cdc565b905092915050565b60006020820190506143296000830184613d3a565b92915050565b600060208201905081810360008301526143498184613d82565b905092915050565b6000602082019050818103600083015261436a81613dec565b9050919050565b6000602082019050818103600083015261438a81613e0f565b9050919050565b600060208201905081810360008301526143aa81613e32565b9050919050565b600060208201905081810360008301526143ca81613e55565b9050919050565b600060208201905081810360008301526143ea81613e78565b9050919050565b6000602082019050818103600083015261440a81613e9b565b9050919050565b6000602082019050818103600083015261442a81613ebe565b9050919050565b6000602082019050818103600083015261444a81613ee1565b9050919050565b6000602082019050818103600083015261446a81613f04565b9050919050565b6000602082019050818103600083015261448a81613f27565b9050919050565b600060208201905081810360008301526144aa81613f4a565b9050919050565b600060208201905081810360008301526144ca81613f6d565b9050919050565b600060208201905081810360008301526144ea81613f90565b9050919050565b6000602082019050818103600083015261450a81613fb3565b9050919050565b6000602082019050818103600083015261452a81613fd6565b9050919050565b6000602082019050818103600083015261454a81613ff9565b9050919050565b6000602082019050818103600083015261456a8161401c565b9050919050565b6000602082019050818103600083015261458a8161403f565b9050919050565b600060208201905081810360008301526145aa81614062565b9050919050565b600060208201905081810360008301526145ca816140a8565b9050919050565b600060208201905081810360008301526145ea816140cb565b9050919050565b6000602082019050818103600083015261460a816140ee565b9050919050565b6000602082019050818103600083015261462a81614111565b9050919050565b6000602082019050818103600083015261464a81614134565b9050919050565b6000602082019050818103600083015261466a8161417a565b9050919050565b6000602082019050818103600083015261468a8161419d565b9050919050565b600060208201905081810360008301526146aa816141c0565b9050919050565b600060208201905081810360008301526146ca816141e3565b9050919050565b600060208201905081810360008301526146ea81614206565b9050919050565b60006020820190506147066000830184614238565b92915050565b60006040820190506147216000830185614238565b61472e6020830184613ccd565b9392505050565b600061473f614750565b905061474b8282614a40565b919050565b6000604051905090565b600067ffffffffffffffff82111561477557614774614b78565b5b61477e82614ba7565b9050602081019050919050565b600067ffffffffffffffff8211156147a6576147a5614b78565b5b6147af82614ba7565b9050602081019050919050565b6000819050602082019050919050565b600081519050919050565b600081519050919050565b600081519050919050565b6000602082019050919050565b600082825260208201905092915050565b600082825260208201905092915050565b600081905092915050565b600082825260208201905092915050565b600081905092915050565b600061484e826149c2565b9150614859836149c2565b9250827fffffffffffffffffffffffffffffffffffffffffffffffffffffffffffffffff0382111561488e5761488d614aeb565b5b828201905092915050565b60006148a4826149c2565b91506148af836149c2565b9250826148bf576148be614b1a565b5b828204905092915050565b60006148d5826149c2565b91506148e0836149c2565b9250817fffffffffffffffffffffffffffffffffffffffffffffffffffffffffffffffff048311821515161561491957614918614aeb565b5b828202905092915050565b600061492f826149c2565b915061493a836149c2565b92508282101561494d5761494c614aeb565b5b828203905092915050565b6000614963826149a2565b9050919050565b60008115159050919050565b60007fffffffff0000000000000000000000000000000000000000000000000000000082169050919050565b600073ffffffffffffffffffffffffffffffffffffffff82169050919050565b6000819050919050565b82818337600083830152505050565b60005b838110156149f95780820151818401526020810190506149de565b83811115614a08576000848401525b50505050565b60006002820490506001821680614a2657607f821691505b60208210811415614a3a57614a39614b49565b5b50919050565b614a4982614ba7565b810181811067ffffffffffffffff82111715614a6857614a67614b78565b5b80604052505050565b6000614a7c826149c2565b91507fffffffffffffffffffffffffffffffffffffffffffffffffffffffffffffffff821415614aaf57614aae614aeb565b5b600182019050919050565b6000614ac5826149c2565b9150614ad0836149c2565b925082614ae057614adf614b1a565b5b828206905092915050565b7f4e487b7100000000000000000000000000000000000000000000000000000000600052601160045260246000fd5b7f4e487b7100000000000000000000000000000000000000000000000000000000600052601260045260246000fd5b7f4e487b7100000000000000000000000000000000000000000000000000000000600052602260045260246000fd5b7f4e487b7100000000000000000000000000000000000000000000000000000000600052604160045260246000fd5b6000601f19601f8301169050919050565b7f43616e206f6e6c79206d696e74206f6e65206f72206d6f726520746f6b656e7360008201527f20617420612074696d6500000000000000000000000000000000000000000000602082015250565b7f4552433732314d657461646174613a2055524920717565727920666f72206e6f60008201527f6e6578697374656e20746f6b656e000000000000000000000000000000000000602082015250565b7f455243373231456e756d657261626c653a206f776e657220696e646578206f7560008201527f74206f6620626f756e6473000000000000000000000000000000000000000000602082015250565b7f4552433732313a207472616e7366657220746f206e6f6e20455243373231526560008201527f63656976657220696d706c656d656e7465720000000000000000000000000000602082015250565b7f4f776e61626c653a206e6577206f776e657220697320746865207a65726f206160008201527f6464726573730000000000000000000000000000000000000000000000000000602082015250565b7f4552433732313a20746f6b656e20616c7265616479206d696e74656400000000600082015250565b7f596f7520617265206e6f74206f6e207468652050726573616c65204c69737400600082015250565b7f53616c65206d7573742062652061637469766520746f206d696e7420546f6b6560008201527f6e00000000000000000000000000000000000000000000000000000000000000602082015250565b7f4e6f7420656e6f7567682072657365727665206c65667420666f72207465616d600082015250565b7f4552433732313a207472616e7366657220746f20746865207a65726f2061646460008201527f7265737300000000000000000000000000000000000000000000000000000000602082015250565b7f4552433732313a20617070726f766520746f2063616c6c657200000000000000600082015250565b7f45746865722076616c75652073656e74206973206e6f7420636f727265637400600082015250565b7f4552433732313a206f70657261746f7220717565727920666f72206e6f6e657860008201527f697374656e7420746f6b656e0000000000000000000000000000000000000000602082015250565b7f4552433732313a20617070726f76652063616c6c6572206973206e6f74206f7760008201527f6e6572206e6f7220617070726f76656420666f7220616c6c0000000000000000602082015250565b7f4552433732313a2062616c616e636520717565727920666f7220746865207a6560008201527f726f206164647265737300000000000000000000000000000000000000000000602082015250565b7f4552433732313a206f776e657220717565727920666f72206e6f6e657869737460008201527f656e7420746f6b656e0000000000000000000000000000000000000000000000602082015250565b7f507572636861736520776f756c6420657863656564206d617820737570706c7960008201527f206f6620746f6b656e7300000000000000000000000000000000000000000000602082015250565b7f4552433732313a206d696e7420746f20746865207a65726f2061646472657373600082015250565b7f4552433732313a20617070726f76656420717565727920666f72206e6f6e657860008201527f697374656e7420746f6b656e0000000000000000000000000000000000000000602082015250565b7f2e6a736f6e000000000000000000000000000000000000000000000000000000600082015250565b7f4f776e61626c653a2063616c6c6572206973206e6f7420746865206f776e6572600082015250565b7f43616e27742061646420746865206e756c6c2061646472657373000000000000600082015250565b7f507572636861736520776f756c6420657863656564206d617820737570706c7960008201527f206f6620746f6b656e0000000000000000000000000000000000000000000000602082015250565b7f4552433732313a207472616e73666572206f6620746f6b656e2074686174206960008201527f73206e6f74206f776e0000000000000000000000000000000000000000000000602082015250565b7f4552433732313a20617070726f76616c20746f2063757272656e74206f776e6560008201527f7200000000000000000000000000000000000000000000000000000000000000602082015250565b50565b7f4552433732313a207472616e736665722063616c6c6572206973206e6f74206f60008201527f776e6572206e6f7220617070726f766564000000000000000000000000000000602082015250565b7f455243373231456e756d657261626c653a20676c6f62616c20696e646578206f60008201527f7574206f6620626f756e64730000000000000000000000000000000000000000602082015250565b7f50726573616c65206973206e6f74206163746976650000000000000000000000600082015250565b7f50757263686173652065786365656473206d617820616c6c6f77656400000000600082015250565b7f43616e6e6f742070757263686173652074686973206d616e7920746f6b656e73600082015250565b61533e81614958565b811461534957600080fd5b50565b6153558161496a565b811461536057600080fd5b50565b61536c81614976565b811461537757600080fd5b50565b615383816149c2565b811461538e57600080fd5b5056fe697066733a2f2f516d55397147644754383532596e6a6a54645932443565473950466f516768535233346b486d7a563747417a39322f68696464656e2e6a736f6ea2646970667358221220b3e6b0131c33b38780980ee861610c1eca0d03cffa51877321b15f3ff23376f564736f6c63430008040033",
  "linkReferences": {},
  "deployedLinkReferences": {}
}